{
	"staticoin.sol": {
		"Staticoin": {
			"abi": [
				{
					"inputs": [],
					"stateMutability": "nonpayable",
					"type": "constructor"
				},
				{
					"anonymous": false,
					"inputs": [
						{
							"indexed": true,
							"internalType": "address",
							"name": "tokenOwner",
							"type": "address"
						},
						{
							"indexed": true,
							"internalType": "address",
							"name": "spender",
							"type": "address"
						},
						{
							"indexed": false,
							"internalType": "uint256",
							"name": "tokens",
							"type": "uint256"
						}
					],
					"name": "Approval",
					"type": "event"
				},
				{
					"anonymous": false,
					"inputs": [
						{
							"indexed": true,
							"internalType": "address",
							"name": "from",
							"type": "address"
						},
						{
							"indexed": true,
							"internalType": "address",
							"name": "to",
							"type": "address"
						},
						{
							"indexed": false,
							"internalType": "uint256",
							"name": "tokens",
							"type": "uint256"
						}
					],
					"name": "Transfer",
					"type": "event"
				},
				{
					"inputs": [],
					"name": "_howManyTimesDoOwnerTriedToTransfer",
					"outputs": [
						{
							"internalType": "uint8",
							"name": "",
							"type": "uint8"
						}
					],
					"stateMutability": "view",
					"type": "function"
				},
				{
					"inputs": [],
					"name": "_owner",
					"outputs": [
						{
							"internalType": "address",
							"name": "",
							"type": "address"
						}
					],
					"stateMutability": "view",
					"type": "function"
				},
				{
					"inputs": [],
					"name": "_totalSupply",
					"outputs": [
						{
							"internalType": "uint256",
							"name": "",
							"type": "uint256"
						}
					],
					"stateMutability": "view",
					"type": "function"
				},
				{
					"inputs": [
						{
							"internalType": "address",
							"name": "tokenOwner",
							"type": "address"
						},
						{
							"internalType": "address",
							"name": "spender",
							"type": "address"
						}
					],
					"name": "allowance",
					"outputs": [
						{
							"internalType": "uint256",
							"name": "remaining",
							"type": "uint256"
						}
					],
					"stateMutability": "view",
					"type": "function"
				},
				{
					"inputs": [
						{
							"internalType": "address",
							"name": "spender",
							"type": "address"
						},
						{
							"internalType": "uint256",
							"name": "tokens",
							"type": "uint256"
						}
					],
					"name": "approve",
					"outputs": [
						{
							"internalType": "bool",
							"name": "success",
							"type": "bool"
						}
					],
					"stateMutability": "nonpayable",
					"type": "function"
				},
				{
					"inputs": [
						{
							"internalType": "address",
							"name": "tokenOwner",
							"type": "address"
						}
					],
					"name": "balanceOf",
					"outputs": [
						{
							"internalType": "uint256",
							"name": "balance",
							"type": "uint256"
						}
					],
					"stateMutability": "view",
					"type": "function"
				},
				{
					"inputs": [],
					"name": "decimals",
					"outputs": [
						{
							"internalType": "uint8",
							"name": "",
							"type": "uint8"
						}
					],
					"stateMutability": "view",
					"type": "function"
				},
				{
					"inputs": [],
					"name": "name",
					"outputs": [
						{
							"internalType": "string",
							"name": "",
							"type": "string"
						}
					],
					"stateMutability": "view",
					"type": "function"
				},
				{
					"inputs": [
						{
							"internalType": "uint256",
							"name": "a",
							"type": "uint256"
						},
						{
							"internalType": "uint256",
							"name": "b",
							"type": "uint256"
						}
					],
					"name": "safeAdd",
					"outputs": [
						{
							"internalType": "uint256",
							"name": "c",
							"type": "uint256"
						}
					],
					"stateMutability": "pure",
					"type": "function"
				},
				{
					"inputs": [
						{
							"internalType": "uint256",
							"name": "a",
							"type": "uint256"
						},
						{
							"internalType": "uint256",
							"name": "b",
							"type": "uint256"
						}
					],
					"name": "safeDiv",
					"outputs": [
						{
							"internalType": "uint256",
							"name": "c",
							"type": "uint256"
						}
					],
					"stateMutability": "pure",
					"type": "function"
				},
				{
					"inputs": [
						{
							"internalType": "uint256",
							"name": "a",
							"type": "uint256"
						},
						{
							"internalType": "uint256",
							"name": "b",
							"type": "uint256"
						}
					],
					"name": "safeMul",
					"outputs": [
						{
							"internalType": "uint256",
							"name": "c",
							"type": "uint256"
						}
					],
					"stateMutability": "pure",
					"type": "function"
				},
				{
					"inputs": [
						{
							"internalType": "uint256",
							"name": "a",
							"type": "uint256"
						},
						{
							"internalType": "uint256",
							"name": "b",
							"type": "uint256"
						}
					],
					"name": "safeSub",
					"outputs": [
						{
							"internalType": "uint256",
							"name": "c",
							"type": "uint256"
						}
					],
					"stateMutability": "pure",
					"type": "function"
				},
				{
					"inputs": [
						{
							"internalType": "address",
							"name": "newOwner",
							"type": "address"
						}
					],
					"name": "setOwner",
					"outputs": [],
					"stateMutability": "nonpayable",
					"type": "function"
				},
				{
					"inputs": [],
					"name": "symbol",
					"outputs": [
						{
							"internalType": "string",
							"name": "",
							"type": "string"
						}
					],
					"stateMutability": "view",
					"type": "function"
				},
				{
					"inputs": [],
					"name": "totalSupply",
					"outputs": [
						{
							"internalType": "uint256",
							"name": "",
							"type": "uint256"
						}
					],
					"stateMutability": "view",
					"type": "function"
				},
				{
					"inputs": [
						{
							"internalType": "address",
							"name": "to",
							"type": "address"
						},
						{
							"internalType": "uint256",
							"name": "tokens",
							"type": "uint256"
						}
					],
					"name": "transfer",
					"outputs": [
						{
							"internalType": "bool",
							"name": "success",
							"type": "bool"
						}
					],
					"stateMutability": "nonpayable",
					"type": "function"
				},
				{
					"inputs": [
						{
							"internalType": "address",
							"name": "from",
							"type": "address"
						},
						{
							"internalType": "address",
							"name": "to",
							"type": "address"
						},
						{
							"internalType": "uint256",
							"name": "tokens",
							"type": "uint256"
						}
					],
					"name": "transferFrom",
					"outputs": [
						{
							"internalType": "bool",
							"name": "success",
							"type": "bool"
						}
					],
					"stateMutability": "nonpayable",
					"type": "function"
				}
			],
			"devdoc": {
				"kind": "dev",
				"methods": {},
				"version": 1
			},
			"evm": {
				"assembly": "    /* \"staticoin.sol\":1396:3928  contract Staticoin is BEP20Interface, SafeMath {... */\n  mstore(0x40, 0x80)\n    /* \"staticoin.sol\":1450:1482  string public name = \"Staticoin\" */\n  mload(0x40)\n  dup1\n  0x40\n  add\n  0x40\n  mstore\n  dup1\n  0x09\n  dup2\n  mstore\n  0x20\n  add\n  0x5374617469636f696e0000000000000000000000000000000000000000000000\n  dup2\n  mstore\n  pop\n  0x00\n  swap1\n  dup2\n  tag_1\n  swap2\n  swap1\n  tag_2\n  jump\t// in\ntag_1:\n  pop\n    /* \"staticoin.sol\":1489:1517  string public symbol = \"SIC\" */\n  mload(0x40)\n  dup1\n  0x40\n  add\n  0x40\n  mstore\n  dup1\n  0x03\n  dup2\n  mstore\n  0x20\n  add\n  0x5349430000000000000000000000000000000000000000000000000000000000\n  dup2\n  mstore\n  pop\n  0x01\n  swap1\n  dup2\n  tag_3\n  swap2\n  swap1\n  tag_2\n  jump\t// in\ntag_3:\n  pop\n    /* \"staticoin.sol\":1548:1550  18 */\n  0x12\n    /* \"staticoin.sol\":1524:1550  uint8 public decimals = 18 */\n  0x02\n  exp(0x0100, 0x00)\n  dup2\n  sload\n  dup2\n  0xff\n  mul\n  not\n  and\n  swap1\n  dup4\n  0xff\n  and\n  mul\n  or\n  swap1\n  sstore\n  pop\n    /* \"staticoin.sol\":1642:1682  1000000000000000000000000000000000000000 */\n  0x02f050fe938943acc45f65568000000000\n    /* \"staticoin.sol\":1612:1682  uint256 public _totalSupply = 1000000000000000000000000000000000000000 */\n  0x03\n  sstore\n    /* \"staticoin.sol\":1832:2042  constructor() {... */\n  callvalue\n  dup1\n  iszero\n  tag_4\n  jumpi\n  revert(0x00, 0x00)\ntag_4:\n  pop\n    /* \"staticoin.sol\":1880:1892  _totalSupply */\n  sload(0x03)\n    /* \"staticoin.sol\":1857:1865  balances */\n  0x05\n    /* \"staticoin.sol\":1857:1877  balances[msg.sender] */\n  0x00\n    /* \"staticoin.sol\":1866:1876  msg.sender */\n  caller\n    /* \"staticoin.sol\":1857:1877  balances[msg.sender] */\n  0xffffffffffffffffffffffffffffffffffffffff\n  and\n  0xffffffffffffffffffffffffffffffffffffffff\n  and\n  dup2\n  mstore\n  0x20\n  add\n  swap1\n  dup2\n  mstore\n  0x20\n  add\n  0x00\n  keccak256\n    /* \"staticoin.sol\":1857:1892  balances[msg.sender] = _totalSupply */\n  dup2\n  swap1\n  sstore\n  pop\n    /* \"staticoin.sol\":1929:1939  msg.sender */\n  caller\n    /* \"staticoin.sol\":1908:1954  Transfer(address(0), msg.sender, _totalSupply) */\n  0xffffffffffffffffffffffffffffffffffffffff\n  and\n    /* \"staticoin.sol\":1925:1926  0 */\n  0x00\n    /* \"staticoin.sol\":1908:1954  Transfer(address(0), msg.sender, _totalSupply) */\n  0xffffffffffffffffffffffffffffffffffffffff\n  and\n  0xddf252ad1be2c89b69c2b068fc378daa952ba7f163c4a11628f55a4df523b3ef\n    /* \"staticoin.sol\":1941:1953  _totalSupply */\n  sload(0x03)\n    /* \"staticoin.sol\":1908:1954  Transfer(address(0), msg.sender, _totalSupply) */\n  mload(0x40)\n  tag_7\n  swap2\n  swap1\n  tag_8\n  jump\t// in\ntag_7:\n  mload(0x40)\n  dup1\n  swap2\n  sub\n  swap1\n  log3\n    /* \"staticoin.sol\":1974:1984  msg.sender */\n  caller\n    /* \"staticoin.sol\":1965:1971  _owner */\n  0x04\n  0x00\n    /* \"staticoin.sol\":1965:1984  _owner = msg.sender */\n  0x0100\n  exp\n  dup2\n  sload\n  dup2\n  0xffffffffffffffffffffffffffffffffffffffff\n  mul\n  not\n  and\n  swap1\n  dup4\n  0xffffffffffffffffffffffffffffffffffffffff\n  and\n  mul\n  or\n  swap1\n  sstore\n  pop\n    /* \"staticoin.sol\":2033:2034  0 */\n  0x00\n    /* \"staticoin.sol\":1995:2030  _howManyTimesDoOwnerTriedToTransfer */\n  0x02\n  0x01\n    /* \"staticoin.sol\":1995:2034  _howManyTimesDoOwnerTriedToTransfer = 0 */\n  0x0100\n  exp\n  dup2\n  sload\n  dup2\n  0xff\n  mul\n  not\n  and\n  swap1\n  dup4\n  0xff\n  and\n  mul\n  or\n  swap1\n  sstore\n  pop\n    /* \"staticoin.sol\":1396:3928  contract Staticoin is BEP20Interface, SafeMath {... */\n  jump(tag_9)\n    /* \"#utility.yul\":7:106   */\ntag_10:\n    /* \"#utility.yul\":59:65   */\n  0x00\n    /* \"#utility.yul\":93:98   */\n  dup2\n    /* \"#utility.yul\":87:99   */\n  mload\n    /* \"#utility.yul\":77:99   */\n  swap1\n  pop\n    /* \"#utility.yul\":7:106   */\n  swap2\n  swap1\n  pop\n  jump\t// out\n    /* \"#utility.yul\":112:292   */\ntag_11:\n    /* \"#utility.yul\":160:237   */\n  0x4e487b7100000000000000000000000000000000000000000000000000000000\n    /* \"#utility.yul\":157:158   */\n  0x00\n    /* \"#utility.yul\":150:238   */\n  mstore\n    /* \"#utility.yul\":257:261   */\n  0x41\n    /* \"#utility.yul\":254:255   */\n  0x04\n    /* \"#utility.yul\":247:262   */\n  mstore\n    /* \"#utility.yul\":281:285   */\n  0x24\n    /* \"#utility.yul\":278:279   */\n  0x00\n    /* \"#utility.yul\":271:286   */\n  revert\n    /* \"#utility.yul\":298:478   */\ntag_12:\n    /* \"#utility.yul\":346:423   */\n  0x4e487b7100000000000000000000000000000000000000000000000000000000\n    /* \"#utility.yul\":343:344   */\n  0x00\n    /* \"#utility.yul\":336:424   */\n  mstore\n    /* \"#utility.yul\":443:447   */\n  0x22\n    /* \"#utility.yul\":440:441   */\n  0x04\n    /* \"#utility.yul\":433:448   */\n  mstore\n    /* \"#utility.yul\":467:471   */\n  0x24\n    /* \"#utility.yul\":464:465   */\n  0x00\n    /* \"#utility.yul\":457:472   */\n  revert\n    /* \"#utility.yul\":484:804   */\ntag_13:\n    /* \"#utility.yul\":528:534   */\n  0x00\n    /* \"#utility.yul\":565:566   */\n  0x02\n    /* \"#utility.yul\":559:563   */\n  dup3\n    /* \"#utility.yul\":555:567   */\n  div\n    /* \"#utility.yul\":545:567   */\n  swap1\n  pop\n    /* \"#utility.yul\":612:613   */\n  0x01\n    /* \"#utility.yul\":606:610   */\n  dup3\n    /* \"#utility.yul\":602:614   */\n  and\n    /* \"#utility.yul\":633:651   */\n  dup1\n    /* \"#utility.yul\":623:704   */\n  tag_36\n  jumpi\n    /* \"#utility.yul\":689:693   */\n  0x7f\n    /* \"#utility.yul\":681:687   */\n  dup3\n    /* \"#utility.yul\":677:694   */\n  and\n    /* \"#utility.yul\":667:694   */\n  swap2\n  pop\n    /* \"#utility.yul\":623:704   */\ntag_36:\n    /* \"#utility.yul\":751:753   */\n  0x20\n    /* \"#utility.yul\":743:749   */\n  dup3\n    /* \"#utility.yul\":740:754   */\n  lt\n    /* \"#utility.yul\":720:738   */\n  dup2\n    /* \"#utility.yul\":717:755   */\n  sub\n    /* \"#utility.yul\":714:798   */\n  tag_37\n  jumpi\n    /* \"#utility.yul\":770:788   */\n  tag_38\n  tag_12\n  jump\t// in\ntag_38:\n    /* \"#utility.yul\":714:798   */\ntag_37:\n    /* \"#utility.yul\":535:804   */\n  pop\n    /* \"#utility.yul\":484:804   */\n  swap2\n  swap1\n  pop\n  jump\t// out\n    /* \"#utility.yul\":810:951   */\ntag_14:\n    /* \"#utility.yul\":859:863   */\n  0x00\n    /* \"#utility.yul\":882:885   */\n  dup2\n    /* \"#utility.yul\":874:885   */\n  swap1\n  pop\n    /* \"#utility.yul\":905:908   */\n  dup2\n    /* \"#utility.yul\":902:903   */\n  0x00\n    /* \"#utility.yul\":895:909   */\n  mstore\n    /* \"#utility.yul\":939:943   */\n  0x20\n    /* \"#utility.yul\":936:937   */\n  0x00\n    /* \"#utility.yul\":926:944   */\n  keccak256\n    /* \"#utility.yul\":918:944   */\n  swap1\n  pop\n    /* \"#utility.yul\":810:951   */\n  swap2\n  swap1\n  pop\n  jump\t// out\n    /* \"#utility.yul\":957:1050   */\ntag_15:\n    /* \"#utility.yul\":994:1000   */\n  0x00\n    /* \"#utility.yul\":1041:1043   */\n  0x20\n    /* \"#utility.yul\":1036:1038   */\n  0x1f\n    /* \"#utility.yul\":1029:1034   */\n  dup4\n    /* \"#utility.yul\":1025:1039   */\n  add\n    /* \"#utility.yul\":1021:1044   */\n  div\n    /* \"#utility.yul\":1011:1044   */\n  swap1\n  pop\n    /* \"#utility.yul\":957:1050   */\n  swap2\n  swap1\n  pop\n  jump\t// out\n    /* \"#utility.yul\":1056:1163   */\ntag_16:\n    /* \"#utility.yul\":1100:1108   */\n  0x00\n    /* \"#utility.yul\":1150:1155   */\n  dup3\n    /* \"#utility.yul\":1144:1148   */\n  dup3\n    /* \"#utility.yul\":1140:1156   */\n  shl\n    /* \"#utility.yul\":1119:1156   */\n  swap1\n  pop\n    /* \"#utility.yul\":1056:1163   */\n  swap3\n  swap2\n  pop\n  pop\n  jump\t// out\n    /* \"#utility.yul\":1169:1562   */\ntag_17:\n    /* \"#utility.yul\":1238:1244   */\n  0x00\n    /* \"#utility.yul\":1288:1289   */\n  0x08\n    /* \"#utility.yul\":1276:1286   */\n  dup4\n    /* \"#utility.yul\":1272:1290   */\n  mul\n    /* \"#utility.yul\":1311:1408   */\n  tag_43\n    /* \"#utility.yul\":1341:1407   */\n  0xffffffffffffffffffffffffffffffffffffffffffffffffffffffffffffffff\n    /* \"#utility.yul\":1330:1339   */\n  dup3\n    /* \"#utility.yul\":1311:1408   */\n  tag_16\n  jump\t// in\ntag_43:\n    /* \"#utility.yul\":1429:1468   */\n  tag_44\n    /* \"#utility.yul\":1459:1467   */\n  dup7\n    /* \"#utility.yul\":1448:1457   */\n  dup4\n    /* \"#utility.yul\":1429:1468   */\n  tag_16\n  jump\t// in\ntag_44:\n    /* \"#utility.yul\":1417:1468   */\n  swap6\n  pop\n    /* \"#utility.yul\":1501:1505   */\n  dup1\n    /* \"#utility.yul\":1497:1506   */\n  not\n    /* \"#utility.yul\":1490:1495   */\n  dup5\n    /* \"#utility.yul\":1486:1507   */\n  and\n    /* \"#utility.yul\":1477:1507   */\n  swap4\n  pop\n    /* \"#utility.yul\":1550:1554   */\n  dup1\n    /* \"#utility.yul\":1540:1548   */\n  dup7\n    /* \"#utility.yul\":1536:1555   */\n  and\n    /* \"#utility.yul\":1529:1534   */\n  dup5\n    /* \"#utility.yul\":1526:1556   */\n  or\n    /* \"#utility.yul\":1516:1556   */\n  swap3\n  pop\n    /* \"#utility.yul\":1245:1562   */\n  pop\n  pop\n    /* \"#utility.yul\":1169:1562   */\n  swap4\n  swap3\n  pop\n  pop\n  pop\n  jump\t// out\n    /* \"#utility.yul\":1568:1645   */\ntag_18:\n    /* \"#utility.yul\":1605:1612   */\n  0x00\n    /* \"#utility.yul\":1634:1639   */\n  dup2\n    /* \"#utility.yul\":1623:1639   */\n  swap1\n  pop\n    /* \"#utility.yul\":1568:1645   */\n  swap2\n  swap1\n  pop\n  jump\t// out\n    /* \"#utility.yul\":1651:1711   */\ntag_19:\n    /* \"#utility.yul\":1679:1682   */\n  0x00\n    /* \"#utility.yul\":1700:1705   */\n  dup2\n    /* \"#utility.yul\":1693:1705   */\n  swap1\n  pop\n    /* \"#utility.yul\":1651:1711   */\n  swap2\n  swap1\n  pop\n  jump\t// out\n    /* \"#utility.yul\":1717:1859   */\ntag_20:\n    /* \"#utility.yul\":1767:1776   */\n  0x00\n    /* \"#utility.yul\":1800:1853   */\n  tag_48\n    /* \"#utility.yul\":1818:1852   */\n  tag_49\n    /* \"#utility.yul\":1827:1851   */\n  tag_50\n    /* \"#utility.yul\":1845:1850   */\n  dup5\n    /* \"#utility.yul\":1827:1851   */\n  tag_18\n  jump\t// in\ntag_50:\n    /* \"#utility.yul\":1818:1852   */\n  tag_19\n  jump\t// in\ntag_49:\n    /* \"#utility.yul\":1800:1853   */\n  tag_18\n  jump\t// in\ntag_48:\n    /* \"#utility.yul\":1787:1853   */\n  swap1\n  pop\n    /* \"#utility.yul\":1717:1859   */\n  swap2\n  swap1\n  pop\n  jump\t// out\n    /* \"#utility.yul\":1865:1940   */\ntag_21:\n    /* \"#utility.yul\":1908:1911   */\n  0x00\n    /* \"#utility.yul\":1929:1934   */\n  dup2\n    /* \"#utility.yul\":1922:1934   */\n  swap1\n  pop\n    /* \"#utility.yul\":1865:1940   */\n  swap2\n  swap1\n  pop\n  jump\t// out\n    /* \"#utility.yul\":1946:2215   */\ntag_22:\n    /* \"#utility.yul\":2056:2095   */\n  tag_53\n    /* \"#utility.yul\":2087:2094   */\n  dup4\n    /* \"#utility.yul\":2056:2095   */\n  tag_20\n  jump\t// in\ntag_53:\n    /* \"#utility.yul\":2117:2208   */\n  tag_54\n    /* \"#utility.yul\":2166:2207   */\n  tag_55\n    /* \"#utility.yul\":2190:2206   */\n  dup3\n    /* \"#utility.yul\":2166:2207   */\n  tag_21\n  jump\t// in\ntag_55:\n    /* \"#utility.yul\":2158:2164   */\n  dup5\n    /* \"#utility.yul\":2151:2155   */\n  dup5\n    /* \"#utility.yul\":2145:2156   */\n  sload\n    /* \"#utility.yul\":2117:2208   */\n  tag_17\n  jump\t// in\ntag_54:\n    /* \"#utility.yul\":2111:2115   */\n  dup3\n    /* \"#utility.yul\":2104:2209   */\n  sstore\n    /* \"#utility.yul\":2022:2215   */\n  pop\n    /* \"#utility.yul\":1946:2215   */\n  pop\n  pop\n  pop\n  jump\t// out\n    /* \"#utility.yul\":2221:2294   */\ntag_23:\n    /* \"#utility.yul\":2266:2269   */\n  0x00\n    /* \"#utility.yul\":2287:2288   */\n  0x00\n    /* \"#utility.yul\":2280:2288   */\n  swap1\n  pop\n    /* \"#utility.yul\":2221:2294   */\n  swap1\n  jump\t// out\n    /* \"#utility.yul\":2300:2489   */\ntag_24:\n    /* \"#utility.yul\":2377:2409   */\n  tag_58\n  tag_23\n  jump\t// in\ntag_58:\n    /* \"#utility.yul\":2418:2483   */\n  tag_59\n    /* \"#utility.yul\":2476:2482   */\n  dup2\n    /* \"#utility.yul\":2468:2474   */\n  dup5\n    /* \"#utility.yul\":2462:2466   */\n  dup5\n    /* \"#utility.yul\":2418:2483   */\n  tag_22\n  jump\t// in\ntag_59:\n    /* \"#utility.yul\":2353:2489   */\n  pop\n    /* \"#utility.yul\":2300:2489   */\n  pop\n  pop\n  jump\t// out\n    /* \"#utility.yul\":2495:2681   */\ntag_25:\n    /* \"#utility.yul\":2555:2675   */\ntag_61:\n    /* \"#utility.yul\":2572:2575   */\n  dup2\n    /* \"#utility.yul\":2565:2570   */\n  dup2\n    /* \"#utility.yul\":2562:2576   */\n  lt\n    /* \"#utility.yul\":2555:2675   */\n  iszero\n  tag_63\n  jumpi\n    /* \"#utility.yul\":2626:2665   */\n  tag_64\n    /* \"#utility.yul\":2663:2664   */\n  0x00\n    /* \"#utility.yul\":2656:2661   */\n  dup3\n    /* \"#utility.yul\":2626:2665   */\n  tag_24\n  jump\t// in\ntag_64:\n    /* \"#utility.yul\":2599:2600   */\n  0x01\n    /* \"#utility.yul\":2592:2597   */\n  dup2\n    /* \"#utility.yul\":2588:2601   */\n  add\n    /* \"#utility.yul\":2579:2601   */\n  swap1\n  pop\n    /* \"#utility.yul\":2555:2675   */\n  jump(tag_61)\ntag_63:\n    /* \"#utility.yul\":2495:2681   */\n  pop\n  pop\n  jump\t// out\n    /* \"#utility.yul\":2687:3230   */\ntag_26:\n    /* \"#utility.yul\":2788:2790   */\n  0x1f\n    /* \"#utility.yul\":2783:2786   */\n  dup3\n    /* \"#utility.yul\":2780:2791   */\n  gt\n    /* \"#utility.yul\":2777:3223   */\n  iszero\n  tag_66\n  jumpi\n    /* \"#utility.yul\":2822:2860   */\n  tag_67\n    /* \"#utility.yul\":2854:2859   */\n  dup2\n    /* \"#utility.yul\":2822:2860   */\n  tag_14\n  jump\t// in\ntag_67:\n    /* \"#utility.yul\":2906:2935   */\n  tag_68\n    /* \"#utility.yul\":2924:2934   */\n  dup5\n    /* \"#utility.yul\":2906:2935   */\n  tag_15\n  jump\t// in\ntag_68:\n    /* \"#utility.yul\":2896:2904   */\n  dup2\n    /* \"#utility.yul\":2892:2936   */\n  add\n    /* \"#utility.yul\":3089:3091   */\n  0x20\n    /* \"#utility.yul\":3077:3087   */\n  dup6\n    /* \"#utility.yul\":3074:3092   */\n  lt\n    /* \"#utility.yul\":3071:3120   */\n  iszero\n  tag_69\n  jumpi\n    /* \"#utility.yul\":3110:3118   */\n  dup2\n    /* \"#utility.yul\":3095:3118   */\n  swap1\n  pop\n    /* \"#utility.yul\":3071:3120   */\ntag_69:\n    /* \"#utility.yul\":3133:3213   */\n  tag_70\n    /* \"#utility.yul\":3189:3211   */\n  tag_71\n    /* \"#utility.yul\":3207:3210   */\n  dup6\n    /* \"#utility.yul\":3189:3211   */\n  tag_15\n  jump\t// in\ntag_71:\n    /* \"#utility.yul\":3179:3187   */\n  dup4\n    /* \"#utility.yul\":3175:3212   */\n  add\n    /* \"#utility.yul\":3162:3173   */\n  dup3\n    /* \"#utility.yul\":3133:3213   */\n  tag_25\n  jump\t// in\ntag_70:\n    /* \"#utility.yul\":2792:3223   */\n  pop\n  pop\n    /* \"#utility.yul\":2777:3223   */\ntag_66:\n    /* \"#utility.yul\":2687:3230   */\n  pop\n  pop\n  pop\n  jump\t// out\n    /* \"#utility.yul\":3236:3353   */\ntag_27:\n    /* \"#utility.yul\":3290:3298   */\n  0x00\n    /* \"#utility.yul\":3340:3345   */\n  dup3\n    /* \"#utility.yul\":3334:3338   */\n  dup3\n    /* \"#utility.yul\":3330:3346   */\n  shr\n    /* \"#utility.yul\":3309:3346   */\n  swap1\n  pop\n    /* \"#utility.yul\":3236:3353   */\n  swap3\n  swap2\n  pop\n  pop\n  jump\t// out\n    /* \"#utility.yul\":3359:3528   */\ntag_28:\n    /* \"#utility.yul\":3403:3409   */\n  0x00\n    /* \"#utility.yul\":3436:3487   */\n  tag_74\n    /* \"#utility.yul\":3484:3485   */\n  0x00\n    /* \"#utility.yul\":3480:3486   */\n  not\n    /* \"#utility.yul\":3472:3477   */\n  dup5\n    /* \"#utility.yul\":3469:3470   */\n  0x08\n    /* \"#utility.yul\":3465:3478   */\n  mul\n    /* \"#utility.yul\":3436:3487   */\n  tag_27\n  jump\t// in\ntag_74:\n    /* \"#utility.yul\":3432:3488   */\n  not\n    /* \"#utility.yul\":3517:3521   */\n  dup1\n    /* \"#utility.yul\":3511:3515   */\n  dup4\n    /* \"#utility.yul\":3507:3522   */\n  and\n    /* \"#utility.yul\":3497:3522   */\n  swap2\n  pop\n    /* \"#utility.yul\":3410:3528   */\n  pop\n    /* \"#utility.yul\":3359:3528   */\n  swap3\n  swap2\n  pop\n  pop\n  jump\t// out\n    /* \"#utility.yul\":3533:3828   */\ntag_29:\n    /* \"#utility.yul\":3609:3613   */\n  0x00\n    /* \"#utility.yul\":3755:3784   */\n  tag_76\n    /* \"#utility.yul\":3780:3783   */\n  dup4\n    /* \"#utility.yul\":3774:3778   */\n  dup4\n    /* \"#utility.yul\":3755:3784   */\n  tag_28\n  jump\t// in\ntag_76:\n    /* \"#utility.yul\":3747:3784   */\n  swap2\n  pop\n    /* \"#utility.yul\":3817:3820   */\n  dup3\n    /* \"#utility.yul\":3814:3815   */\n  0x02\n    /* \"#utility.yul\":3810:3821   */\n  mul\n    /* \"#utility.yul\":3804:3808   */\n  dup3\n    /* \"#utility.yul\":3801:3822   */\n  or\n    /* \"#utility.yul\":3793:3822   */\n  swap1\n  pop\n    /* \"#utility.yul\":3533:3828   */\n  swap3\n  swap2\n  pop\n  pop\n  jump\t// out\n    /* \"#utility.yul\":3833:5228   */\ntag_2:\n    /* \"#utility.yul\":3950:3987   */\n  tag_78\n    /* \"#utility.yul\":3983:3986   */\n  dup3\n    /* \"#utility.yul\":3950:3987   */\n  tag_10\n  jump\t// in\ntag_78:\n    /* \"#utility.yul\":4052:4070   */\n  0xffffffffffffffff\n    /* \"#utility.yul\":4044:4050   */\n  dup2\n    /* \"#utility.yul\":4041:4071   */\n  gt\n    /* \"#utility.yul\":4038:4094   */\n  iszero\n  tag_79\n  jumpi\n    /* \"#utility.yul\":4074:4092   */\n  tag_80\n  tag_11\n  jump\t// in\ntag_80:\n    /* \"#utility.yul\":4038:4094   */\ntag_79:\n    /* \"#utility.yul\":4118:4156   */\n  tag_81\n    /* \"#utility.yul\":4150:4154   */\n  dup3\n    /* \"#utility.yul\":4144:4155   */\n  sload\n    /* \"#utility.yul\":4118:4156   */\n  tag_13\n  jump\t// in\ntag_81:\n    /* \"#utility.yul\":4203:4270   */\n  tag_82\n    /* \"#utility.yul\":4263:4269   */\n  dup3\n    /* \"#utility.yul\":4255:4261   */\n  dup3\n    /* \"#utility.yul\":4249:4253   */\n  dup6\n    /* \"#utility.yul\":4203:4270   */\n  tag_26\n  jump\t// in\ntag_82:\n    /* \"#utility.yul\":4297:4298   */\n  0x00\n    /* \"#utility.yul\":4321:4325   */\n  0x20\n    /* \"#utility.yul\":4308:4325   */\n  swap1\n  pop\n    /* \"#utility.yul\":4353:4355   */\n  0x1f\n    /* \"#utility.yul\":4345:4351   */\n  dup4\n    /* \"#utility.yul\":4342:4356   */\n  gt\n    /* \"#utility.yul\":4370:4371   */\n  0x01\n    /* \"#utility.yul\":4365:4983   */\n  dup2\n  eq\n  tag_84\n  jumpi\n    /* \"#utility.yul\":5027:5028   */\n  0x00\n    /* \"#utility.yul\":5044:5050   */\n  dup5\n    /* \"#utility.yul\":5041:5118   */\n  iszero\n  tag_85\n  jumpi\n    /* \"#utility.yul\":5093:5102   */\n  dup3\n    /* \"#utility.yul\":5088:5091   */\n  dup8\n    /* \"#utility.yul\":5084:5103   */\n  add\n    /* \"#utility.yul\":5078:5104   */\n  mload\n    /* \"#utility.yul\":5069:5104   */\n  swap1\n  pop\n    /* \"#utility.yul\":5041:5118   */\ntag_85:\n    /* \"#utility.yul\":5144:5211   */\n  tag_86\n    /* \"#utility.yul\":5204:5210   */\n  dup6\n    /* \"#utility.yul\":5197:5202   */\n  dup3\n    /* \"#utility.yul\":5144:5211   */\n  tag_29\n  jump\t// in\ntag_86:\n    /* \"#utility.yul\":5138:5142   */\n  dup7\n    /* \"#utility.yul\":5131:5212   */\n  sstore\n    /* \"#utility.yul\":5000:5222   */\n  pop\n    /* \"#utility.yul\":4335:5222   */\n  jump(tag_83)\n    /* \"#utility.yul\":4365:4983   */\ntag_84:\n    /* \"#utility.yul\":4417:4421   */\n  0x1f\n    /* \"#utility.yul\":4413:4422   */\n  not\n    /* \"#utility.yul\":4405:4411   */\n  dup5\n    /* \"#utility.yul\":4401:4423   */\n  and\n    /* \"#utility.yul\":4451:4488   */\n  tag_87\n    /* \"#utility.yul\":4483:4487   */\n  dup7\n    /* \"#utility.yul\":4451:4488   */\n  tag_14\n  jump\t// in\ntag_87:\n    /* \"#utility.yul\":4510:4511   */\n  0x00\n    /* \"#utility.yul\":4524:4732   */\ntag_88:\n    /* \"#utility.yul\":4538:4545   */\n  dup3\n    /* \"#utility.yul\":4535:4536   */\n  dup2\n    /* \"#utility.yul\":4532:4546   */\n  lt\n    /* \"#utility.yul\":4524:4732   */\n  iszero\n  tag_90\n  jumpi\n    /* \"#utility.yul\":4617:4626   */\n  dup5\n    /* \"#utility.yul\":4612:4615   */\n  dup10\n    /* \"#utility.yul\":4608:4627   */\n  add\n    /* \"#utility.yul\":4602:4628   */\n  mload\n    /* \"#utility.yul\":4594:4600   */\n  dup3\n    /* \"#utility.yul\":4587:4629   */\n  sstore\n    /* \"#utility.yul\":4668:4669   */\n  0x01\n    /* \"#utility.yul\":4660:4666   */\n  dup3\n    /* \"#utility.yul\":4656:4670   */\n  add\n    /* \"#utility.yul\":4646:4670   */\n  swap2\n  pop\n    /* \"#utility.yul\":4715:4717   */\n  0x20\n    /* \"#utility.yul\":4704:4713   */\n  dup6\n    /* \"#utility.yul\":4700:4718   */\n  add\n    /* \"#utility.yul\":4687:4718   */\n  swap5\n  pop\n    /* \"#utility.yul\":4561:4565   */\n  0x20\n    /* \"#utility.yul\":4558:4559   */\n  dup2\n    /* \"#utility.yul\":4554:4566   */\n  add\n    /* \"#utility.yul\":4549:4566   */\n  swap1\n  pop\n    /* \"#utility.yul\":4524:4732   */\n  jump(tag_88)\ntag_90:\n    /* \"#utility.yul\":4760:4766   */\n  dup7\n    /* \"#utility.yul\":4751:4758   */\n  dup4\n    /* \"#utility.yul\":4748:4767   */\n  lt\n    /* \"#utility.yul\":4745:4924   */\n  iszero\n  tag_91\n  jumpi\n    /* \"#utility.yul\":4818:4827   */\n  dup5\n    /* \"#utility.yul\":4813:4816   */\n  dup10\n    /* \"#utility.yul\":4809:4828   */\n  add\n    /* \"#utility.yul\":4803:4829   */\n  mload\n    /* \"#utility.yul\":4861:4909   */\n  tag_92\n    /* \"#utility.yul\":4903:4907   */\n  0x1f\n    /* \"#utility.yul\":4895:4901   */\n  dup10\n    /* \"#utility.yul\":4891:4908   */\n  and\n    /* \"#utility.yul\":4880:4889   */\n  dup3\n    /* \"#utility.yul\":4861:4909   */\n  tag_28\n  jump\t// in\ntag_92:\n    /* \"#utility.yul\":4853:4859   */\n  dup4\n    /* \"#utility.yul\":4846:4910   */\n  sstore\n    /* \"#utility.yul\":4768:4924   */\n  pop\n    /* \"#utility.yul\":4745:4924   */\ntag_91:\n    /* \"#utility.yul\":4970:4971   */\n  0x01\n    /* \"#utility.yul\":4966:4967   */\n  0x02\n    /* \"#utility.yul\":4958:4964   */\n  dup9\n    /* \"#utility.yul\":4954:4968   */\n  mul\n    /* \"#utility.yul\":4950:4972   */\n  add\n    /* \"#utility.yul\":4944:4948   */\n  dup9\n    /* \"#utility.yul\":4937:4973   */\n  sstore\n    /* \"#utility.yul\":4372:4983   */\n  pop\n  pop\n  pop\n    /* \"#utility.yul\":4335:5222   */\ntag_83:\n  pop\n    /* \"#utility.yul\":3925:5228   */\n  pop\n  pop\n  pop\n    /* \"#utility.yul\":3833:5228   */\n  pop\n  pop\n  jump\t// out\n    /* \"#utility.yul\":5234:5352   */\ntag_30:\n    /* \"#utility.yul\":5321:5345   */\n  tag_94\n    /* \"#utility.yul\":5339:5344   */\n  dup2\n    /* \"#utility.yul\":5321:5345   */\n  tag_18\n  jump\t// in\ntag_94:\n    /* \"#utility.yul\":5316:5319   */\n  dup3\n    /* \"#utility.yul\":5309:5346   */\n  mstore\n    /* \"#utility.yul\":5234:5352   */\n  pop\n  pop\n  jump\t// out\n    /* \"#utility.yul\":5358:5580   */\ntag_8:\n    /* \"#utility.yul\":5451:5455   */\n  0x00\n    /* \"#utility.yul\":5489:5491   */\n  0x20\n    /* \"#utility.yul\":5478:5487   */\n  dup3\n    /* \"#utility.yul\":5474:5492   */\n  add\n    /* \"#utility.yul\":5466:5492   */\n  swap1\n  pop\n    /* \"#utility.yul\":5502:5573   */\n  tag_96\n    /* \"#utility.yul\":5570:5571   */\n  0x00\n    /* \"#utility.yul\":5559:5568   */\n  dup4\n    /* \"#utility.yul\":5555:5572   */\n  add\n    /* \"#utility.yul\":5546:5552   */\n  dup5\n    /* \"#utility.yul\":5502:5573   */\n  tag_30\n  jump\t// in\ntag_96:\n    /* \"#utility.yul\":5358:5580   */\n  swap3\n  swap2\n  pop\n  pop\n  jump\t// out\n    /* \"staticoin.sol\":1396:3928  contract Staticoin is BEP20Interface, SafeMath {... */\ntag_9:\n  dataSize(sub_0)\n  dup1\n  dataOffset(sub_0)\n  0x00\n  codecopy\n  0x00\n  return\nstop\n\nsub_0: assembly {\n        /* \"staticoin.sol\":1396:3928  contract Staticoin is BEP20Interface, SafeMath {... */\n      mstore(0x40, 0x80)\n      callvalue\n      dup1\n      iszero\n      tag_1\n      jumpi\n      revert(0x00, 0x00)\n    tag_1:\n      pop\n      jumpi(tag_2, lt(calldatasize, 0x04))\n      shr(0xe0, calldataload(0x00))\n      dup1\n      0x70a08231\n      gt\n      tag_20\n      jumpi\n      dup1\n      0xb2bdfa7b\n      gt\n      tag_21\n      jumpi\n      dup1\n      0xb2bdfa7b\n      eq\n      tag_15\n      jumpi\n      dup1\n      0xb5931f7c\n      eq\n      tag_16\n      jumpi\n      dup1\n      0xd05c78da\n      eq\n      tag_17\n      jumpi\n      dup1\n      0xdd62ed3e\n      eq\n      tag_18\n      jumpi\n      dup1\n      0xe6cb9013\n      eq\n      tag_19\n      jumpi\n      jump(tag_2)\n    tag_21:\n      dup1\n      0x70a08231\n      eq\n      tag_11\n      jumpi\n      dup1\n      0x95d89b41\n      eq\n      tag_12\n      jumpi\n      dup1\n      0xa293d1e8\n      eq\n      tag_13\n      jumpi\n      dup1\n      0xa9059cbb\n      eq\n      tag_14\n      jumpi\n      jump(tag_2)\n    tag_20:\n      dup1\n      0x23b872dd\n      gt\n      tag_22\n      jumpi\n      dup1\n      0x23b872dd\n      eq\n      tag_7\n      jumpi\n      dup1\n      0x313ce567\n      eq\n      tag_8\n      jumpi\n      dup1\n      0x3eaaf86b\n      eq\n      tag_9\n      jumpi\n      dup1\n      0x5ed254ce\n      eq\n      tag_10\n      jumpi\n      jump(tag_2)\n    tag_22:\n      dup1\n      0x06fdde03\n      eq\n      tag_3\n      jumpi\n      dup1\n      0x095ea7b3\n      eq\n      tag_4\n      jumpi\n      dup1\n      0x13af4035\n      eq\n      tag_5\n      jumpi\n      dup1\n      0x18160ddd\n      eq\n      tag_6\n      jumpi\n    tag_2:\n      revert(0x00, 0x00)\n        /* \"staticoin.sol\":1450:1482  string public name = \"Staticoin\" */\n    tag_3:\n      tag_23\n      tag_24\n      jump\t// in\n    tag_23:\n      mload(0x40)\n      tag_25\n      swap2\n      swap1\n      tag_26\n      jump\t// in\n    tag_25:\n      mload(0x40)\n      dup1\n      swap2\n      sub\n      swap1\n      return\n        /* \"staticoin.sol\":3403:3623  function approve(address spender, uint256 tokens) public override returns (bool success) {... */\n    tag_4:\n      tag_27\n      0x04\n      dup1\n      calldatasize\n      sub\n      dup2\n      add\n      swap1\n      tag_28\n      swap2\n      swap1\n      tag_29\n      jump\t// in\n    tag_28:\n      tag_30\n      jump\t// in\n    tag_27:\n      mload(0x40)\n      tag_31\n      swap2\n      swap1\n      tag_32\n      jump\t// in\n    tag_31:\n      mload(0x40)\n      dup1\n      swap2\n      sub\n      swap1\n      return\n        /* \"staticoin.sol\":2058:2137  function setOwner(address newOwner) public {... */\n    tag_5:\n      tag_33\n      0x04\n      dup1\n      calldatasize\n      sub\n      dup2\n      add\n      swap1\n      tag_34\n      swap2\n      swap1\n      tag_35\n      jump\t// in\n    tag_34:\n      tag_36\n      jump\t// in\n    tag_33:\n      stop\n        /* \"staticoin.sol\":2149:2272  function totalSupply() public override view returns (uint256) {... */\n    tag_6:\n      tag_37\n      tag_38\n      jump\t// in\n    tag_37:\n      mload(0x40)\n      tag_39\n      swap2\n      swap1\n      tag_40\n      jump\t// in\n    tag_39:\n      mload(0x40)\n      dup1\n      swap2\n      sub\n      swap1\n      return\n        /* \"staticoin.sol\":3631:3925  function transferFrom(address from, address to, uint256 tokens) public override returns (bool success) {... */\n    tag_7:\n      tag_41\n      0x04\n      dup1\n      calldatasize\n      sub\n      dup2\n      add\n      swap1\n      tag_42\n      swap2\n      swap1\n      tag_43\n      jump\t// in\n    tag_42:\n      tag_44\n      jump\t// in\n    tag_41:\n      mload(0x40)\n      tag_45\n      swap2\n      swap1\n      tag_32\n      jump\t// in\n    tag_45:\n      mload(0x40)\n      dup1\n      swap2\n      sub\n      swap1\n      return\n        /* \"staticoin.sol\":1524:1550  uint8 public decimals = 18 */\n    tag_8:\n      tag_46\n      tag_47\n      jump\t// in\n    tag_46:\n      mload(0x40)\n      tag_48\n      swap2\n      swap1\n      tag_49\n      jump\t// in\n    tag_48:\n      mload(0x40)\n      dup1\n      swap2\n      sub\n      swap1\n      return\n        /* \"staticoin.sol\":1612:1682  uint256 public _totalSupply = 1000000000000000000000000000000000000000 */\n    tag_9:\n      tag_50\n      tag_51\n      jump\t// in\n    tag_50:\n      mload(0x40)\n      tag_52\n      swap2\n      swap1\n      tag_40\n      jump\t// in\n    tag_52:\n      mload(0x40)\n      dup1\n      swap2\n      sub\n      swap1\n      return\n        /* \"staticoin.sol\":1557:1605  uint8 public _howManyTimesDoOwnerTriedToTransfer */\n    tag_10:\n      tag_53\n      tag_54\n      jump\t// in\n    tag_53:\n      mload(0x40)\n      tag_55\n      swap2\n      swap1\n      tag_49\n      jump\t// in\n    tag_55:\n      mload(0x40)\n      dup1\n      swap2\n      sub\n      swap1\n      return\n        /* \"staticoin.sol\":2280:2412  function balanceOf(address tokenOwner) public override view returns (uint256 balance) {... */\n    tag_11:\n      tag_56\n      0x04\n      dup1\n      calldatasize\n      sub\n      dup2\n      add\n      swap1\n      tag_57\n      swap2\n      swap1\n      tag_35\n      jump\t// in\n    tag_57:\n      tag_58\n      jump\t// in\n    tag_56:\n      mload(0x40)\n      tag_59\n      swap2\n      swap1\n      tag_40\n      jump\t// in\n    tag_59:\n      mload(0x40)\n      dup1\n      swap2\n      sub\n      swap1\n      return\n        /* \"staticoin.sol\":1489:1517  string public symbol = \"SIC\" */\n    tag_12:\n      tag_60\n      tag_61\n      jump\t// in\n    tag_60:\n      mload(0x40)\n      tag_62\n      swap2\n      swap1\n      tag_26\n      jump\t// in\n    tag_62:\n      mload(0x40)\n      dup1\n      swap2\n      sub\n      swap1\n      return\n        /* \"staticoin.sol\":989:1114  function safeSub(uint256 a, uint256 b) public pure returns (uint256 c) {... */\n    tag_13:\n      tag_63\n      0x04\n      dup1\n      calldatasize\n      sub\n      dup2\n      add\n      swap1\n      tag_64\n      swap2\n      swap1\n      tag_65\n      jump\t// in\n    tag_64:\n      tag_66\n      jump\t// in\n    tag_63:\n      mload(0x40)\n      tag_67\n      swap2\n      swap1\n      tag_40\n      jump\t// in\n    tag_67:\n      mload(0x40)\n      dup1\n      swap2\n      sub\n      swap1\n      return\n        /* \"staticoin.sol\":3188:3395  function transfer(address to, uint256 tokens) public override returns (bool success) {... */\n    tag_14:\n      tag_68\n      0x04\n      dup1\n      calldatasize\n      sub\n      dup2\n      add\n      swap1\n      tag_69\n      swap2\n      swap1\n      tag_29\n      jump\t// in\n    tag_69:\n      tag_70\n      jump\t// in\n    tag_68:\n      mload(0x40)\n      tag_71\n      swap2\n      swap1\n      tag_32\n      jump\t// in\n    tag_71:\n      mload(0x40)\n      dup1\n      swap2\n      sub\n      swap1\n      return\n        /* \"staticoin.sol\":1689:1710  address public _owner */\n    tag_15:\n      tag_72\n      tag_73\n      jump\t// in\n    tag_72:\n      mload(0x40)\n      tag_74\n      swap2\n      swap1\n      tag_75\n      jump\t// in\n    tag_74:\n      mload(0x40)\n      dup1\n      swap2\n      sub\n      swap1\n      return\n        /* \"staticoin.sol\":1265:1389  function safeDiv(uint256 a, uint256 b) public pure returns (uint256 c) {... */\n    tag_16:\n      tag_76\n      0x04\n      dup1\n      calldatasize\n      sub\n      dup2\n      add\n      swap1\n      tag_77\n      swap2\n      swap1\n      tag_65\n      jump\t// in\n    tag_77:\n      tag_78\n      jump\t// in\n    tag_76:\n      mload(0x40)\n      tag_79\n      swap2\n      swap1\n      tag_40\n      jump\t// in\n    tag_79:\n      mload(0x40)\n      dup1\n      swap2\n      sub\n      swap1\n      return\n        /* \"staticoin.sol\":1120:1259  function safeMul(uint256 a, uint256 b) public pure returns (uint256 c) {... */\n    tag_17:\n      tag_80\n      0x04\n      dup1\n      calldatasize\n      sub\n      dup2\n      add\n      swap1\n      tag_81\n      swap2\n      swap1\n      tag_65\n      jump\t// in\n    tag_81:\n      tag_82\n      jump\t// in\n    tag_80:\n      mload(0x40)\n      tag_83\n      swap2\n      swap1\n      tag_40\n      jump\t// in\n    tag_83:\n      mload(0x40)\n      dup1\n      swap2\n      sub\n      swap1\n      return\n        /* \"staticoin.sol\":2420:2579  function allowance(address tokenOwner, address spender) public override view returns (uint256 remaining) {... */\n    tag_18:\n      tag_84\n      0x04\n      dup1\n      calldatasize\n      sub\n      dup2\n      add\n      swap1\n      tag_85\n      swap2\n      swap1\n      tag_86\n      jump\t// in\n    tag_85:\n      tag_87\n      jump\t// in\n    tag_84:\n      mload(0x40)\n      tag_88\n      swap2\n      swap1\n      tag_40\n      jump\t// in\n    tag_88:\n      mload(0x40)\n      dup1\n      swap2\n      sub\n      swap1\n      return\n        /* \"staticoin.sol\":858:983  function safeAdd(uint256 a, uint256 b) public pure returns (uint256 c) {... */\n    tag_19:\n      tag_89\n      0x04\n      dup1\n      calldatasize\n      sub\n      dup2\n      add\n      swap1\n      tag_90\n      swap2\n      swap1\n      tag_65\n      jump\t// in\n    tag_90:\n      tag_91\n      jump\t// in\n    tag_89:\n      mload(0x40)\n      tag_92\n      swap2\n      swap1\n      tag_40\n      jump\t// in\n    tag_92:\n      mload(0x40)\n      dup1\n      swap2\n      sub\n      swap1\n      return\n        /* \"staticoin.sol\":1450:1482  string public name = \"Staticoin\" */\n    tag_24:\n      0x00\n      dup1\n      sload\n      tag_93\n      swap1\n      tag_94\n      jump\t// in\n    tag_93:\n      dup1\n      0x1f\n      add\n      0x20\n      dup1\n      swap2\n      div\n      mul\n      0x20\n      add\n      mload(0x40)\n      swap1\n      dup2\n      add\n      0x40\n      mstore\n      dup1\n      swap3\n      swap2\n      swap1\n      dup2\n      dup2\n      mstore\n      0x20\n      add\n      dup3\n      dup1\n      sload\n      tag_95\n      swap1\n      tag_94\n      jump\t// in\n    tag_95:\n      dup1\n      iszero\n      tag_96\n      jumpi\n      dup1\n      0x1f\n      lt\n      tag_97\n      jumpi\n      0x0100\n      dup1\n      dup4\n      sload\n      div\n      mul\n      dup4\n      mstore\n      swap2\n      0x20\n      add\n      swap2\n      jump(tag_96)\n    tag_97:\n      dup3\n      add\n      swap2\n      swap1\n      0x00\n      mstore\n      keccak256(0x00, 0x20)\n      swap1\n    tag_98:\n      dup2\n      sload\n      dup2\n      mstore\n      swap1\n      0x01\n      add\n      swap1\n      0x20\n      add\n      dup1\n      dup4\n      gt\n      tag_98\n      jumpi\n      dup3\n      swap1\n      sub\n      0x1f\n      and\n      dup3\n      add\n      swap2\n    tag_96:\n      pop\n      pop\n      pop\n      pop\n      pop\n      dup2\n      jump\t// out\n        /* \"staticoin.sol\":3403:3623  function approve(address spender, uint256 tokens) public override returns (bool success) {... */\n    tag_30:\n        /* \"staticoin.sol\":3478:3490  bool success */\n      0x00\n        /* \"staticoin.sol\":3534:3540  tokens */\n      dup2\n        /* \"staticoin.sol\":3503:3510  allowed */\n      0x06\n        /* \"staticoin.sol\":3503:3522  allowed[msg.sender] */\n      0x00\n        /* \"staticoin.sol\":3511:3521  msg.sender */\n      caller\n        /* \"staticoin.sol\":3503:3522  allowed[msg.sender] */\n      0xffffffffffffffffffffffffffffffffffffffff\n      and\n      0xffffffffffffffffffffffffffffffffffffffff\n      and\n      dup2\n      mstore\n      0x20\n      add\n      swap1\n      dup2\n      mstore\n      0x20\n      add\n      0x00\n      keccak256\n        /* \"staticoin.sol\":3503:3531  allowed[msg.sender][spender] */\n      0x00\n        /* \"staticoin.sol\":3523:3530  spender */\n      dup6\n        /* \"staticoin.sol\":3503:3531  allowed[msg.sender][spender] */\n      0xffffffffffffffffffffffffffffffffffffffff\n      and\n      0xffffffffffffffffffffffffffffffffffffffff\n      and\n      dup2\n      mstore\n      0x20\n      add\n      swap1\n      dup2\n      mstore\n      0x20\n      add\n      0x00\n      keccak256\n        /* \"staticoin.sol\":3503:3540  allowed[msg.sender][spender] = tokens */\n      dup2\n      swap1\n      sstore\n      pop\n        /* \"staticoin.sol\":3577:3584  spender */\n      dup3\n        /* \"staticoin.sol\":3556:3593  Approval(msg.sender, spender, tokens) */\n      0xffffffffffffffffffffffffffffffffffffffff\n      and\n        /* \"staticoin.sol\":3565:3575  msg.sender */\n      caller\n        /* \"staticoin.sol\":3556:3593  Approval(msg.sender, spender, tokens) */\n      0xffffffffffffffffffffffffffffffffffffffff\n      and\n      0x8c5be1e5ebec7d5bd14f71427d1e84f3dd0314c0f7b2291e5b200ac8c7c3b925\n        /* \"staticoin.sol\":3586:3592  tokens */\n      dup5\n        /* \"staticoin.sol\":3556:3593  Approval(msg.sender, spender, tokens) */\n      mload(0x40)\n      tag_100\n      swap2\n      swap1\n      tag_40\n      jump\t// in\n    tag_100:\n      mload(0x40)\n      dup1\n      swap2\n      sub\n      swap1\n      log3\n        /* \"staticoin.sol\":3611:3615  true */\n      0x01\n        /* \"staticoin.sol\":3604:3615  return true */\n      swap1\n      pop\n        /* \"staticoin.sol\":3403:3623  function approve(address spender, uint256 tokens) public override returns (bool success) {... */\n      swap3\n      swap2\n      pop\n      pop\n      jump\t// out\n        /* \"staticoin.sol\":2058:2137  function setOwner(address newOwner) public {... */\n    tag_36:\n        /* \"staticoin.sol\":2121:2129  newOwner */\n      dup1\n        /* \"staticoin.sol\":2112:2118  _owner */\n      0x04\n      0x00\n        /* \"staticoin.sol\":2112:2129  _owner = newOwner */\n      0x0100\n      exp\n      dup2\n      sload\n      dup2\n      0xffffffffffffffffffffffffffffffffffffffff\n      mul\n      not\n      and\n      swap1\n      dup4\n      0xffffffffffffffffffffffffffffffffffffffff\n      and\n      mul\n      or\n      swap1\n      sstore\n      pop\n        /* \"staticoin.sol\":2058:2137  function setOwner(address newOwner) public {... */\n      pop\n      jump\t// out\n        /* \"staticoin.sol\":2149:2272  function totalSupply() public override view returns (uint256) {... */\n    tag_38:\n        /* \"staticoin.sol\":2202:2209  uint256 */\n      0x00\n        /* \"staticoin.sol\":2244:2252  balances */\n      0x05\n        /* \"staticoin.sol\":2244:2264  balances[address(0)] */\n      0x00\n        /* \"staticoin.sol\":2261:2262  0 */\n      0x00\n        /* \"staticoin.sol\":2244:2264  balances[address(0)] */\n      0xffffffffffffffffffffffffffffffffffffffff\n      and\n      0xffffffffffffffffffffffffffffffffffffffff\n      and\n      dup2\n      mstore\n      0x20\n      add\n      swap1\n      dup2\n      mstore\n      0x20\n      add\n      0x00\n      keccak256\n      sload\n        /* \"staticoin.sol\":2229:2241  _totalSupply */\n      sload(0x03)\n        /* \"staticoin.sol\":2229:2264  _totalSupply - balances[address(0)] */\n      tag_103\n      swap2\n      swap1\n      tag_104\n      jump\t// in\n    tag_103:\n        /* \"staticoin.sol\":2222:2264  return _totalSupply - balances[address(0)] */\n      swap1\n      pop\n        /* \"staticoin.sol\":2149:2272  function totalSupply() public override view returns (uint256) {... */\n      swap1\n      jump\t// out\n        /* \"staticoin.sol\":3631:3925  function transferFrom(address from, address to, uint256 tokens) public override returns (bool success) {... */\n    tag_44:\n        /* \"staticoin.sol\":3720:3732  bool success */\n      0x00\n        /* \"staticoin.sol\":3773:3815  safeSub(allowed[from][msg.sender], tokens) */\n      tag_106\n        /* \"staticoin.sol\":3781:3788  allowed */\n      0x06\n        /* \"staticoin.sol\":3781:3794  allowed[from] */\n      0x00\n        /* \"staticoin.sol\":3789:3793  from */\n      dup7\n        /* \"staticoin.sol\":3781:3794  allowed[from] */\n      0xffffffffffffffffffffffffffffffffffffffff\n      and\n      0xffffffffffffffffffffffffffffffffffffffff\n      and\n      dup2\n      mstore\n      0x20\n      add\n      swap1\n      dup2\n      mstore\n      0x20\n      add\n      0x00\n      keccak256\n        /* \"staticoin.sol\":3781:3806  allowed[from][msg.sender] */\n      0x00\n        /* \"staticoin.sol\":3795:3805  msg.sender */\n      caller\n        /* \"staticoin.sol\":3781:3806  allowed[from][msg.sender] */\n      0xffffffffffffffffffffffffffffffffffffffff\n      and\n      0xffffffffffffffffffffffffffffffffffffffff\n      and\n      dup2\n      mstore\n      0x20\n      add\n      swap1\n      dup2\n      mstore\n      0x20\n      add\n      0x00\n      keccak256\n      sload\n        /* \"staticoin.sol\":3808:3814  tokens */\n      dup4\n        /* \"staticoin.sol\":3773:3780  safeSub */\n      tag_66\n        /* \"staticoin.sol\":3773:3815  safeSub(allowed[from][msg.sender], tokens) */\n      jump\t// in\n    tag_106:\n        /* \"staticoin.sol\":3745:3752  allowed */\n      0x06\n        /* \"staticoin.sol\":3745:3758  allowed[from] */\n      0x00\n        /* \"staticoin.sol\":3753:3757  from */\n      dup7\n        /* \"staticoin.sol\":3745:3758  allowed[from] */\n      0xffffffffffffffffffffffffffffffffffffffff\n      and\n      0xffffffffffffffffffffffffffffffffffffffff\n      and\n      dup2\n      mstore\n      0x20\n      add\n      swap1\n      dup2\n      mstore\n      0x20\n      add\n      0x00\n      keccak256\n        /* \"staticoin.sol\":3745:3770  allowed[from][msg.sender] */\n      0x00\n        /* \"staticoin.sol\":3759:3769  msg.sender */\n      caller\n        /* \"staticoin.sol\":3745:3770  allowed[from][msg.sender] */\n      0xffffffffffffffffffffffffffffffffffffffff\n      and\n      0xffffffffffffffffffffffffffffffffffffffff\n      and\n      dup2\n      mstore\n      0x20\n      add\n      swap1\n      dup2\n      mstore\n      0x20\n      add\n      0x00\n      keccak256\n        /* \"staticoin.sol\":3745:3815  allowed[from][msg.sender] = safeSub(allowed[from][msg.sender], tokens) */\n      dup2\n      swap1\n      sstore\n      pop\n        /* \"staticoin.sol\":3826:3853  _transfer(from, to, tokens) */\n      tag_107\n        /* \"staticoin.sol\":3836:3840  from */\n      dup5\n        /* \"staticoin.sol\":3842:3844  to */\n      dup5\n        /* \"staticoin.sol\":3846:3852  tokens */\n      dup5\n        /* \"staticoin.sol\":3826:3835  _transfer */\n      tag_108\n        /* \"staticoin.sol\":3826:3853  _transfer(from, to, tokens) */\n      jump\t// in\n    tag_107:\n      pop\n        /* \"staticoin.sol\":3884:3886  to */\n      dup3\n        /* \"staticoin.sol\":3869:3895  Transfer(from, to, tokens) */\n      0xffffffffffffffffffffffffffffffffffffffff\n      and\n        /* \"staticoin.sol\":3878:3882  from */\n      dup5\n        /* \"staticoin.sol\":3869:3895  Transfer(from, to, tokens) */\n      0xffffffffffffffffffffffffffffffffffffffff\n      and\n      0xddf252ad1be2c89b69c2b068fc378daa952ba7f163c4a11628f55a4df523b3ef\n        /* \"staticoin.sol\":3888:3894  tokens */\n      dup5\n        /* \"staticoin.sol\":3869:3895  Transfer(from, to, tokens) */\n      mload(0x40)\n      tag_109\n      swap2\n      swap1\n      tag_40\n      jump\t// in\n    tag_109:\n      mload(0x40)\n      dup1\n      swap2\n      sub\n      swap1\n      log3\n        /* \"staticoin.sol\":3913:3917  true */\n      0x01\n        /* \"staticoin.sol\":3906:3917  return true */\n      swap1\n      pop\n        /* \"staticoin.sol\":3631:3925  function transferFrom(address from, address to, uint256 tokens) public override returns (bool success) {... */\n      swap4\n      swap3\n      pop\n      pop\n      pop\n      jump\t// out\n        /* \"staticoin.sol\":1524:1550  uint8 public decimals = 18 */\n    tag_47:\n      0x02\n      0x00\n      swap1\n      sload\n      swap1\n      0x0100\n      exp\n      swap1\n      div\n      0xff\n      and\n      dup2\n      jump\t// out\n        /* \"staticoin.sol\":1612:1682  uint256 public _totalSupply = 1000000000000000000000000000000000000000 */\n    tag_51:\n      sload(0x03)\n      dup2\n      jump\t// out\n        /* \"staticoin.sol\":1557:1605  uint8 public _howManyTimesDoOwnerTriedToTransfer */\n    tag_54:\n      0x02\n      0x01\n      swap1\n      sload\n      swap1\n      0x0100\n      exp\n      swap1\n      div\n      0xff\n      and\n      dup2\n      jump\t// out\n        /* \"staticoin.sol\":2280:2412  function balanceOf(address tokenOwner) public override view returns (uint256 balance) {... */\n    tag_58:\n        /* \"staticoin.sol\":2349:2364  uint256 balance */\n      0x00\n        /* \"staticoin.sol\":2384:2392  balances */\n      0x05\n        /* \"staticoin.sol\":2384:2404  balances[tokenOwner] */\n      0x00\n        /* \"staticoin.sol\":2393:2403  tokenOwner */\n      dup4\n        /* \"staticoin.sol\":2384:2404  balances[tokenOwner] */\n      0xffffffffffffffffffffffffffffffffffffffff\n      and\n      0xffffffffffffffffffffffffffffffffffffffff\n      and\n      dup2\n      mstore\n      0x20\n      add\n      swap1\n      dup2\n      mstore\n      0x20\n      add\n      0x00\n      keccak256\n      sload\n        /* \"staticoin.sol\":2377:2404  return balances[tokenOwner] */\n      swap1\n      pop\n        /* \"staticoin.sol\":2280:2412  function balanceOf(address tokenOwner) public override view returns (uint256 balance) {... */\n      swap2\n      swap1\n      pop\n      jump\t// out\n        /* \"staticoin.sol\":1489:1517  string public symbol = \"SIC\" */\n    tag_61:\n      0x01\n      dup1\n      sload\n      tag_111\n      swap1\n      tag_94\n      jump\t// in\n    tag_111:\n      dup1\n      0x1f\n      add\n      0x20\n      dup1\n      swap2\n      div\n      mul\n      0x20\n      add\n      mload(0x40)\n      swap1\n      dup2\n      add\n      0x40\n      mstore\n      dup1\n      swap3\n      swap2\n      swap1\n      dup2\n      dup2\n      mstore\n      0x20\n      add\n      dup3\n      dup1\n      sload\n      tag_112\n      swap1\n      tag_94\n      jump\t// in\n    tag_112:\n      dup1\n      iszero\n      tag_113\n      jumpi\n      dup1\n      0x1f\n      lt\n      tag_114\n      jumpi\n      0x0100\n      dup1\n      dup4\n      sload\n      div\n      mul\n      dup4\n      mstore\n      swap2\n      0x20\n      add\n      swap2\n      jump(tag_113)\n    tag_114:\n      dup3\n      add\n      swap2\n      swap1\n      0x00\n      mstore\n      keccak256(0x00, 0x20)\n      swap1\n    tag_115:\n      dup2\n      sload\n      dup2\n      mstore\n      swap1\n      0x01\n      add\n      swap1\n      0x20\n      add\n      dup1\n      dup4\n      gt\n      tag_115\n      jumpi\n      dup3\n      swap1\n      sub\n      0x1f\n      and\n      dup3\n      add\n      swap2\n    tag_113:\n      pop\n      pop\n      pop\n      pop\n      pop\n      dup2\n      jump\t// out\n        /* \"staticoin.sol\":989:1114  function safeSub(uint256 a, uint256 b) public pure returns (uint256 c) {... */\n    tag_66:\n        /* \"staticoin.sol\":1049:1058  uint256 c */\n      0x00\n        /* \"staticoin.sol\":1084:1085  a */\n      dup3\n        /* \"staticoin.sol\":1079:1080  b */\n      dup3\n        /* \"staticoin.sol\":1079:1085  b <= a */\n      gt\n      iszero\n        /* \"staticoin.sol\":1071:1086  require(b <= a) */\n      tag_117\n      jumpi\n      revert(0x00, 0x00)\n    tag_117:\n        /* \"staticoin.sol\":1105:1106  b */\n      dup2\n        /* \"staticoin.sol\":1101:1102  a */\n      dup4\n        /* \"staticoin.sol\":1101:1106  a - b */\n      tag_118\n      swap2\n      swap1\n      tag_104\n      jump\t// in\n    tag_118:\n        /* \"staticoin.sol\":1097:1106  c = a - b */\n      swap1\n      pop\n        /* \"staticoin.sol\":989:1114  function safeSub(uint256 a, uint256 b) public pure returns (uint256 c) {... */\n      swap3\n      swap2\n      pop\n      pop\n      jump\t// out\n        /* \"staticoin.sol\":3188:3395  function transfer(address to, uint256 tokens) public override returns (bool success) {... */\n    tag_70:\n        /* \"staticoin.sol\":3259:3271  bool success */\n      0x00\n        /* \"staticoin.sol\":3284:3317  _transfer(msg.sender, to, tokens) */\n      tag_120\n        /* \"staticoin.sol\":3294:3304  msg.sender */\n      caller\n        /* \"staticoin.sol\":3306:3308  to */\n      dup5\n        /* \"staticoin.sol\":3310:3316  tokens */\n      dup5\n        /* \"staticoin.sol\":3284:3293  _transfer */\n      tag_108\n        /* \"staticoin.sol\":3284:3317  _transfer(msg.sender, to, tokens) */\n      jump\t// in\n    tag_120:\n      pop\n        /* \"staticoin.sol\":3354:3356  to */\n      dup3\n        /* \"staticoin.sol\":3333:3365  Transfer(msg.sender, to, tokens) */\n      0xffffffffffffffffffffffffffffffffffffffff\n      and\n        /* \"staticoin.sol\":3342:3352  msg.sender */\n      caller\n        /* \"staticoin.sol\":3333:3365  Transfer(msg.sender, to, tokens) */\n      0xffffffffffffffffffffffffffffffffffffffff\n      and\n      0xddf252ad1be2c89b69c2b068fc378daa952ba7f163c4a11628f55a4df523b3ef\n        /* \"staticoin.sol\":3358:3364  tokens */\n      dup5\n        /* \"staticoin.sol\":3333:3365  Transfer(msg.sender, to, tokens) */\n      mload(0x40)\n      tag_121\n      swap2\n      swap1\n      tag_40\n      jump\t// in\n    tag_121:\n      mload(0x40)\n      dup1\n      swap2\n      sub\n      swap1\n      log3\n        /* \"staticoin.sol\":3383:3387  true */\n      0x01\n        /* \"staticoin.sol\":3376:3387  return true */\n      swap1\n      pop\n        /* \"staticoin.sol\":3188:3395  function transfer(address to, uint256 tokens) public override returns (bool success) {... */\n      swap3\n      swap2\n      pop\n      pop\n      jump\t// out\n        /* \"staticoin.sol\":1689:1710  address public _owner */\n    tag_73:\n      0x04\n      0x00\n      swap1\n      sload\n      swap1\n      0x0100\n      exp\n      swap1\n      div\n      0xffffffffffffffffffffffffffffffffffffffff\n      and\n      dup2\n      jump\t// out\n        /* \"staticoin.sol\":1265:1389  function safeDiv(uint256 a, uint256 b) public pure returns (uint256 c) {... */\n    tag_78:\n        /* \"staticoin.sol\":1325:1334  uint256 c */\n      0x00\n        /* \"staticoin.sol\":1359:1360  0 */\n      0x00\n        /* \"staticoin.sol\":1355:1356  b */\n      dup3\n        /* \"staticoin.sol\":1355:1360  b > 0 */\n      gt\n        /* \"staticoin.sol\":1347:1361  require(b > 0) */\n      tag_123\n      jumpi\n      revert(0x00, 0x00)\n    tag_123:\n        /* \"staticoin.sol\":1380:1381  b */\n      dup2\n        /* \"staticoin.sol\":1376:1377  a */\n      dup4\n        /* \"staticoin.sol\":1376:1381  a / b */\n      tag_124\n      swap2\n      swap1\n      tag_125\n      jump\t// in\n    tag_124:\n        /* \"staticoin.sol\":1372:1381  c = a / b */\n      swap1\n      pop\n        /* \"staticoin.sol\":1265:1389  function safeDiv(uint256 a, uint256 b) public pure returns (uint256 c) {... */\n      swap3\n      swap2\n      pop\n      pop\n      jump\t// out\n        /* \"staticoin.sol\":1120:1259  function safeMul(uint256 a, uint256 b) public pure returns (uint256 c) {... */\n    tag_82:\n        /* \"staticoin.sol\":1180:1189  uint256 c */\n      0x00\n        /* \"staticoin.sol\":1210:1211  b */\n      dup2\n        /* \"staticoin.sol\":1206:1207  a */\n      dup4\n        /* \"staticoin.sol\":1206:1211  a * b */\n      tag_127\n      swap2\n      swap1\n      tag_128\n      jump\t// in\n    tag_127:\n        /* \"staticoin.sol\":1202:1211  c = a * b */\n      swap1\n      pop\n        /* \"staticoin.sol\":1235:1236  0 */\n      0x00\n        /* \"staticoin.sol\":1230:1231  a */\n      dup4\n        /* \"staticoin.sol\":1230:1236  a == 0 */\n      eq\n        /* \"staticoin.sol\":1230:1250  a == 0 || c / a == b */\n      dup1\n      tag_129\n      jumpi\n      pop\n        /* \"staticoin.sol\":1249:1250  b */\n      dup2\n        /* \"staticoin.sol\":1244:1245  a */\n      dup4\n        /* \"staticoin.sol\":1240:1241  c */\n      dup3\n        /* \"staticoin.sol\":1240:1245  c / a */\n      tag_130\n      swap2\n      swap1\n      tag_125\n      jump\t// in\n    tag_130:\n        /* \"staticoin.sol\":1240:1250  c / a == b */\n      eq\n        /* \"staticoin.sol\":1230:1250  a == 0 || c / a == b */\n    tag_129:\n        /* \"staticoin.sol\":1222:1251  require(a == 0 || c / a == b) */\n      tag_131\n      jumpi\n      revert(0x00, 0x00)\n    tag_131:\n        /* \"staticoin.sol\":1120:1259  function safeMul(uint256 a, uint256 b) public pure returns (uint256 c) {... */\n      swap3\n      swap2\n      pop\n      pop\n      jump\t// out\n        /* \"staticoin.sol\":2420:2579  function allowance(address tokenOwner, address spender) public override view returns (uint256 remaining) {... */\n    tag_87:\n        /* \"staticoin.sol\":2506:2523  uint256 remaining */\n      0x00\n        /* \"staticoin.sol\":2543:2550  allowed */\n      0x06\n        /* \"staticoin.sol\":2543:2562  allowed[tokenOwner] */\n      0x00\n        /* \"staticoin.sol\":2551:2561  tokenOwner */\n      dup5\n        /* \"staticoin.sol\":2543:2562  allowed[tokenOwner] */\n      0xffffffffffffffffffffffffffffffffffffffff\n      and\n      0xffffffffffffffffffffffffffffffffffffffff\n      and\n      dup2\n      mstore\n      0x20\n      add\n      swap1\n      dup2\n      mstore\n      0x20\n      add\n      0x00\n      keccak256\n        /* \"staticoin.sol\":2543:2571  allowed[tokenOwner][spender] */\n      0x00\n        /* \"staticoin.sol\":2563:2570  spender */\n      dup4\n        /* \"staticoin.sol\":2543:2571  allowed[tokenOwner][spender] */\n      0xffffffffffffffffffffffffffffffffffffffff\n      and\n      0xffffffffffffffffffffffffffffffffffffffff\n      and\n      dup2\n      mstore\n      0x20\n      add\n      swap1\n      dup2\n      mstore\n      0x20\n      add\n      0x00\n      keccak256\n      sload\n        /* \"staticoin.sol\":2536:2571  return allowed[tokenOwner][spender] */\n      swap1\n      pop\n        /* \"staticoin.sol\":2420:2579  function allowance(address tokenOwner, address spender) public override view returns (uint256 remaining) {... */\n      swap3\n      swap2\n      pop\n      pop\n      jump\t// out\n        /* \"staticoin.sol\":858:983  function safeAdd(uint256 a, uint256 b) public pure returns (uint256 c) {... */\n    tag_91:\n        /* \"staticoin.sol\":918:927  uint256 c */\n      0x00\n        /* \"staticoin.sol\":948:949  b */\n      dup2\n        /* \"staticoin.sol\":944:945  a */\n      dup4\n        /* \"staticoin.sol\":944:949  a + b */\n      tag_134\n      swap2\n      swap1\n      tag_135\n      jump\t// in\n    tag_134:\n        /* \"staticoin.sol\":940:949  c = a + b */\n      swap1\n      pop\n        /* \"staticoin.sol\":973:974  a */\n      dup3\n        /* \"staticoin.sol\":968:969  c */\n      dup2\n        /* \"staticoin.sol\":968:974  c >= a */\n      lt\n      iszero\n        /* \"staticoin.sol\":960:975  require(c >= a) */\n      tag_136\n      jumpi\n      revert(0x00, 0x00)\n    tag_136:\n        /* \"staticoin.sol\":858:983  function safeAdd(uint256 a, uint256 b) public pure returns (uint256 c) {... */\n      swap3\n      swap2\n      pop\n      pop\n      jump\t// out\n        /* \"staticoin.sol\":2591:3180  function _transfer(address from, address to, uint256 tokens) private returns (bool success) {... */\n    tag_108:\n        /* \"staticoin.sol\":2669:2681  bool success */\n      0x00\n        /* \"staticoin.sol\":2740:2741  5 */\n      0x05\n        /* \"staticoin.sol\":2702:2737  _howManyTimesDoOwnerTriedToTransfer */\n      0x02\n      0x01\n      swap1\n      sload\n      swap1\n      0x0100\n      exp\n      swap1\n      div\n      0xff\n      and\n        /* \"staticoin.sol\":2702:2741  _howManyTimesDoOwnerTriedToTransfer < 5 */\n      0xff\n      and\n      lt\n        /* \"staticoin.sol\":2694:2742  require(_howManyTimesDoOwnerTriedToTransfer < 5) */\n      tag_138\n      jumpi\n      revert(0x00, 0x00)\n    tag_138:\n        /* \"staticoin.sol\":2771:2777  _owner */\n      0x04\n      0x00\n      swap1\n      sload\n      swap1\n      0x0100\n      exp\n      swap1\n      div\n      0xffffffffffffffffffffffffffffffffffffffff\n      and\n        /* \"staticoin.sol\":2757:2777  msg.sender == _owner */\n      0xffffffffffffffffffffffffffffffffffffffff\n      and\n        /* \"staticoin.sol\":2757:2767  msg.sender */\n      caller\n        /* \"staticoin.sol\":2757:2777  msg.sender == _owner */\n      0xffffffffffffffffffffffffffffffffffffffff\n      and\n      sub\n        /* \"staticoin.sol\":2753:3173  if (msg.sender == _owner) {... */\n      tag_139\n      jumpi\n        /* \"staticoin.sol\":2798:2833  _howManyTimesDoOwnerTriedToTransfer */\n      0x02\n      0x01\n        /* \"staticoin.sol\":2798:2835  _howManyTimesDoOwnerTriedToTransfer++ */\n      dup2\n      dup2\n      swap1\n      sload\n      swap1\n      0x0100\n      exp\n      swap1\n      div\n      0xff\n      and\n      dup1\n      swap3\n      swap2\n      swap1\n      tag_140\n      swap1\n      tag_141\n      jump\t// in\n    tag_140:\n      swap2\n      swap1\n      0x0100\n      exp\n      dup2\n      sload\n      dup2\n      0xff\n      mul\n      not\n      and\n      swap1\n      dup4\n      0xff\n      and\n      mul\n      or\n      swap1\n      sstore\n      pop\n      pop\n        /* \"staticoin.sol\":2871:2902  safeSub(balances[from], tokens) */\n      tag_142\n        /* \"staticoin.sol\":2879:2887  balances */\n      0x05\n        /* \"staticoin.sol\":2879:2893  balances[from] */\n      0x00\n        /* \"staticoin.sol\":2888:2892  from */\n      dup7\n        /* \"staticoin.sol\":2879:2893  balances[from] */\n      0xffffffffffffffffffffffffffffffffffffffff\n      and\n      0xffffffffffffffffffffffffffffffffffffffff\n      and\n      dup2\n      mstore\n      0x20\n      add\n      swap1\n      dup2\n      mstore\n      0x20\n      add\n      0x00\n      keccak256\n      sload\n        /* \"staticoin.sol\":2895:2901  tokens */\n      dup4\n        /* \"staticoin.sol\":2871:2878  safeSub */\n      tag_66\n        /* \"staticoin.sol\":2871:2902  safeSub(balances[from], tokens) */\n      jump\t// in\n    tag_142:\n        /* \"staticoin.sol\":2854:2862  balances */\n      0x05\n        /* \"staticoin.sol\":2854:2868  balances[from] */\n      0x00\n        /* \"staticoin.sol\":2863:2867  from */\n      dup7\n        /* \"staticoin.sol\":2854:2868  balances[from] */\n      0xffffffffffffffffffffffffffffffffffffffff\n      and\n      0xffffffffffffffffffffffffffffffffffffffff\n      and\n      dup2\n      mstore\n      0x20\n      add\n      swap1\n      dup2\n      mstore\n      0x20\n      add\n      0x00\n      keccak256\n        /* \"staticoin.sol\":2854:2902  balances[from] = safeSub(balances[from], tokens) */\n      dup2\n      swap1\n      sstore\n      pop\n        /* \"staticoin.sol\":2936:2965  safeAdd(balances[to], tokens) */\n      tag_143\n        /* \"staticoin.sol\":2944:2952  balances */\n      0x05\n        /* \"staticoin.sol\":2944:2956  balances[to] */\n      0x00\n        /* \"staticoin.sol\":2953:2955  to */\n      dup6\n        /* \"staticoin.sol\":2944:2956  balances[to] */\n      0xffffffffffffffffffffffffffffffffffffffff\n      and\n      0xffffffffffffffffffffffffffffffffffffffff\n      and\n      dup2\n      mstore\n      0x20\n      add\n      swap1\n      dup2\n      mstore\n      0x20\n      add\n      0x00\n      keccak256\n      sload\n        /* \"staticoin.sol\":2958:2964  tokens */\n      dup4\n        /* \"staticoin.sol\":2936:2943  safeAdd */\n      tag_91\n        /* \"staticoin.sol\":2936:2965  safeAdd(balances[to], tokens) */\n      jump\t// in\n    tag_143:\n        /* \"staticoin.sol\":2921:2929  balances */\n      0x05\n        /* \"staticoin.sol\":2921:2933  balances[to] */\n      0x00\n        /* \"staticoin.sol\":2930:2932  to */\n      dup6\n        /* \"staticoin.sol\":2921:2933  balances[to] */\n      0xffffffffffffffffffffffffffffffffffffffff\n      and\n      0xffffffffffffffffffffffffffffffffffffffff\n      and\n      dup2\n      mstore\n      0x20\n      add\n      swap1\n      dup2\n      mstore\n      0x20\n      add\n      0x00\n      keccak256\n        /* \"staticoin.sol\":2921:2965  balances[to] = safeAdd(balances[to], tokens) */\n      dup2\n      swap1\n      sstore\n      pop\n        /* \"staticoin.sol\":2991:2995  true */\n      0x01\n        /* \"staticoin.sol\":2984:2995  return true */\n      swap1\n      pop\n      jump(tag_137)\n        /* \"staticoin.sol\":2753:3173  if (msg.sender == _owner) {... */\n    tag_139:\n        /* \"staticoin.sol\":3045:3076  safeSub(balances[from], tokens) */\n      tag_145\n        /* \"staticoin.sol\":3053:3061  balances */\n      0x05\n        /* \"staticoin.sol\":3053:3067  balances[from] */\n      0x00\n        /* \"staticoin.sol\":3062:3066  from */\n      dup7\n        /* \"staticoin.sol\":3053:3067  balances[from] */\n      0xffffffffffffffffffffffffffffffffffffffff\n      and\n      0xffffffffffffffffffffffffffffffffffffffff\n      and\n      dup2\n      mstore\n      0x20\n      add\n      swap1\n      dup2\n      mstore\n      0x20\n      add\n      0x00\n      keccak256\n      sload\n        /* \"staticoin.sol\":3069:3075  tokens */\n      dup4\n        /* \"staticoin.sol\":3045:3052  safeSub */\n      tag_66\n        /* \"staticoin.sol\":3045:3076  safeSub(balances[from], tokens) */\n      jump\t// in\n    tag_145:\n        /* \"staticoin.sol\":3028:3036  balances */\n      0x05\n        /* \"staticoin.sol\":3028:3042  balances[from] */\n      0x00\n        /* \"staticoin.sol\":3037:3041  from */\n      dup7\n        /* \"staticoin.sol\":3028:3042  balances[from] */\n      0xffffffffffffffffffffffffffffffffffffffff\n      and\n      0xffffffffffffffffffffffffffffffffffffffff\n      and\n      dup2\n      mstore\n      0x20\n      add\n      swap1\n      dup2\n      mstore\n      0x20\n      add\n      0x00\n      keccak256\n        /* \"staticoin.sol\":3028:3076  balances[from] = safeSub(balances[from], tokens) */\n      dup2\n      swap1\n      sstore\n      pop\n        /* \"staticoin.sol\":3106:3135  safeAdd(balances[to], tokens) */\n      tag_146\n        /* \"staticoin.sol\":3114:3122  balances */\n      0x05\n        /* \"staticoin.sol\":3114:3126  balances[to] */\n      0x00\n        /* \"staticoin.sol\":3123:3125  to */\n      dup6\n        /* \"staticoin.sol\":3114:3126  balances[to] */\n      0xffffffffffffffffffffffffffffffffffffffff\n      and\n      0xffffffffffffffffffffffffffffffffffffffff\n      and\n      dup2\n      mstore\n      0x20\n      add\n      swap1\n      dup2\n      mstore\n      0x20\n      add\n      0x00\n      keccak256\n      sload\n        /* \"staticoin.sol\":3128:3134  tokens */\n      dup4\n        /* \"staticoin.sol\":3106:3113  safeAdd */\n      tag_91\n        /* \"staticoin.sol\":3106:3135  safeAdd(balances[to], tokens) */\n      jump\t// in\n    tag_146:\n        /* \"staticoin.sol\":3091:3099  balances */\n      0x05\n        /* \"staticoin.sol\":3091:3103  balances[to] */\n      0x00\n        /* \"staticoin.sol\":3100:3102  to */\n      dup6\n        /* \"staticoin.sol\":3091:3103  balances[to] */\n      0xffffffffffffffffffffffffffffffffffffffff\n      and\n      0xffffffffffffffffffffffffffffffffffffffff\n      and\n      dup2\n      mstore\n      0x20\n      add\n      swap1\n      dup2\n      mstore\n      0x20\n      add\n      0x00\n      keccak256\n        /* \"staticoin.sol\":3091:3135  balances[to] = safeAdd(balances[to], tokens) */\n      dup2\n      swap1\n      sstore\n      pop\n        /* \"staticoin.sol\":3157:3161  true */\n      0x01\n        /* \"staticoin.sol\":3150:3161  return true */\n      swap1\n      pop\n        /* \"staticoin.sol\":2591:3180  function _transfer(address from, address to, uint256 tokens) private returns (bool success) {... */\n    tag_137:\n      swap4\n      swap3\n      pop\n      pop\n      pop\n      jump\t// out\n        /* \"#utility.yul\":7:106   */\n    tag_147:\n        /* \"#utility.yul\":59:65   */\n      0x00\n        /* \"#utility.yul\":93:98   */\n      dup2\n        /* \"#utility.yul\":87:99   */\n      mload\n        /* \"#utility.yul\":77:99   */\n      swap1\n      pop\n        /* \"#utility.yul\":7:106   */\n      swap2\n      swap1\n      pop\n      jump\t// out\n        /* \"#utility.yul\":112:281   */\n    tag_148:\n        /* \"#utility.yul\":196:207   */\n      0x00\n        /* \"#utility.yul\":230:236   */\n      dup3\n        /* \"#utility.yul\":225:228   */\n      dup3\n        /* \"#utility.yul\":218:237   */\n      mstore\n        /* \"#utility.yul\":270:274   */\n      0x20\n        /* \"#utility.yul\":265:268   */\n      dup3\n        /* \"#utility.yul\":261:275   */\n      add\n        /* \"#utility.yul\":246:275   */\n      swap1\n      pop\n        /* \"#utility.yul\":112:281   */\n      swap3\n      swap2\n      pop\n      pop\n      jump\t// out\n        /* \"#utility.yul\":287:426   */\n    tag_149:\n        /* \"#utility.yul\":376:382   */\n      dup3\n        /* \"#utility.yul\":371:374   */\n      dup2\n        /* \"#utility.yul\":366:369   */\n      dup4\n        /* \"#utility.yul\":360:383   */\n      mcopy\n        /* \"#utility.yul\":417:418   */\n      0x00\n        /* \"#utility.yul\":408:414   */\n      dup4\n        /* \"#utility.yul\":403:406   */\n      dup4\n        /* \"#utility.yul\":399:415   */\n      add\n        /* \"#utility.yul\":392:419   */\n      mstore\n        /* \"#utility.yul\":287:426   */\n      pop\n      pop\n      pop\n      jump\t// out\n        /* \"#utility.yul\":432:534   */\n    tag_150:\n        /* \"#utility.yul\":473:479   */\n      0x00\n        /* \"#utility.yul\":524:526   */\n      0x1f\n        /* \"#utility.yul\":520:527   */\n      not\n        /* \"#utility.yul\":515:517   */\n      0x1f\n        /* \"#utility.yul\":508:513   */\n      dup4\n        /* \"#utility.yul\":504:518   */\n      add\n        /* \"#utility.yul\":500:528   */\n      and\n        /* \"#utility.yul\":490:528   */\n      swap1\n      pop\n        /* \"#utility.yul\":432:534   */\n      swap2\n      swap1\n      pop\n      jump\t// out\n        /* \"#utility.yul\":540:917   */\n    tag_151:\n        /* \"#utility.yul\":628:631   */\n      0x00\n        /* \"#utility.yul\":656:695   */\n      tag_177\n        /* \"#utility.yul\":689:694   */\n      dup3\n        /* \"#utility.yul\":656:695   */\n      tag_147\n      jump\t// in\n    tag_177:\n        /* \"#utility.yul\":711:782   */\n      tag_178\n        /* \"#utility.yul\":775:781   */\n      dup2\n        /* \"#utility.yul\":770:773   */\n      dup6\n        /* \"#utility.yul\":711:782   */\n      tag_148\n      jump\t// in\n    tag_178:\n        /* \"#utility.yul\":704:782   */\n      swap4\n      pop\n        /* \"#utility.yul\":791:856   */\n      tag_179\n        /* \"#utility.yul\":849:855   */\n      dup2\n        /* \"#utility.yul\":844:847   */\n      dup6\n        /* \"#utility.yul\":837:841   */\n      0x20\n        /* \"#utility.yul\":830:835   */\n      dup7\n        /* \"#utility.yul\":826:842   */\n      add\n        /* \"#utility.yul\":791:856   */\n      tag_149\n      jump\t// in\n    tag_179:\n        /* \"#utility.yul\":881:910   */\n      tag_180\n        /* \"#utility.yul\":903:909   */\n      dup2\n        /* \"#utility.yul\":881:910   */\n      tag_150\n      jump\t// in\n    tag_180:\n        /* \"#utility.yul\":876:879   */\n      dup5\n        /* \"#utility.yul\":872:911   */\n      add\n        /* \"#utility.yul\":865:911   */\n      swap2\n      pop\n        /* \"#utility.yul\":632:917   */\n      pop\n        /* \"#utility.yul\":540:917   */\n      swap3\n      swap2\n      pop\n      pop\n      jump\t// out\n        /* \"#utility.yul\":923:1236   */\n    tag_26:\n        /* \"#utility.yul\":1036:1040   */\n      0x00\n        /* \"#utility.yul\":1074:1076   */\n      0x20\n        /* \"#utility.yul\":1063:1072   */\n      dup3\n        /* \"#utility.yul\":1059:1077   */\n      add\n        /* \"#utility.yul\":1051:1077   */\n      swap1\n      pop\n        /* \"#utility.yul\":1123:1132   */\n      dup2\n        /* \"#utility.yul\":1117:1121   */\n      dup2\n        /* \"#utility.yul\":1113:1133   */\n      sub\n        /* \"#utility.yul\":1109:1110   */\n      0x00\n        /* \"#utility.yul\":1098:1107   */\n      dup4\n        /* \"#utility.yul\":1094:1111   */\n      add\n        /* \"#utility.yul\":1087:1134   */\n      mstore\n        /* \"#utility.yul\":1151:1229   */\n      tag_182\n        /* \"#utility.yul\":1224:1228   */\n      dup2\n        /* \"#utility.yul\":1215:1221   */\n      dup5\n        /* \"#utility.yul\":1151:1229   */\n      tag_151\n      jump\t// in\n    tag_182:\n        /* \"#utility.yul\":1143:1229   */\n      swap1\n      pop\n        /* \"#utility.yul\":923:1236   */\n      swap3\n      swap2\n      pop\n      pop\n      jump\t// out\n        /* \"#utility.yul\":1323:1440   */\n    tag_153:\n        /* \"#utility.yul\":1432:1433   */\n      0x00\n        /* \"#utility.yul\":1429:1430   */\n      0x00\n        /* \"#utility.yul\":1422:1434   */\n      revert\n        /* \"#utility.yul\":1569:1695   */\n    tag_155:\n        /* \"#utility.yul\":1606:1613   */\n      0x00\n        /* \"#utility.yul\":1646:1688   */\n      0xffffffffffffffffffffffffffffffffffffffff\n        /* \"#utility.yul\":1639:1644   */\n      dup3\n        /* \"#utility.yul\":1635:1689   */\n      and\n        /* \"#utility.yul\":1624:1689   */\n      swap1\n      pop\n        /* \"#utility.yul\":1569:1695   */\n      swap2\n      swap1\n      pop\n      jump\t// out\n        /* \"#utility.yul\":1701:1797   */\n    tag_156:\n        /* \"#utility.yul\":1738:1745   */\n      0x00\n        /* \"#utility.yul\":1767:1791   */\n      tag_188\n        /* \"#utility.yul\":1785:1790   */\n      dup3\n        /* \"#utility.yul\":1767:1791   */\n      tag_155\n      jump\t// in\n    tag_188:\n        /* \"#utility.yul\":1756:1791   */\n      swap1\n      pop\n        /* \"#utility.yul\":1701:1797   */\n      swap2\n      swap1\n      pop\n      jump\t// out\n        /* \"#utility.yul\":1803:1925   */\n    tag_157:\n        /* \"#utility.yul\":1876:1900   */\n      tag_190\n        /* \"#utility.yul\":1894:1899   */\n      dup2\n        /* \"#utility.yul\":1876:1900   */\n      tag_156\n      jump\t// in\n    tag_190:\n        /* \"#utility.yul\":1869:1874   */\n      dup2\n        /* \"#utility.yul\":1866:1901   */\n      eq\n        /* \"#utility.yul\":1856:1919   */\n      tag_191\n      jumpi\n        /* \"#utility.yul\":1915:1916   */\n      0x00\n        /* \"#utility.yul\":1912:1913   */\n      0x00\n        /* \"#utility.yul\":1905:1917   */\n      revert\n        /* \"#utility.yul\":1856:1919   */\n    tag_191:\n        /* \"#utility.yul\":1803:1925   */\n      pop\n      jump\t// out\n        /* \"#utility.yul\":1931:2070   */\n    tag_158:\n        /* \"#utility.yul\":1977:1982   */\n      0x00\n        /* \"#utility.yul\":2015:2021   */\n      dup2\n        /* \"#utility.yul\":2002:2022   */\n      calldataload\n        /* \"#utility.yul\":1993:2022   */\n      swap1\n      pop\n        /* \"#utility.yul\":2031:2064   */\n      tag_193\n        /* \"#utility.yul\":2058:2063   */\n      dup2\n        /* \"#utility.yul\":2031:2064   */\n      tag_157\n      jump\t// in\n    tag_193:\n        /* \"#utility.yul\":1931:2070   */\n      swap3\n      swap2\n      pop\n      pop\n      jump\t// out\n        /* \"#utility.yul\":2076:2153   */\n    tag_159:\n        /* \"#utility.yul\":2113:2120   */\n      0x00\n        /* \"#utility.yul\":2142:2147   */\n      dup2\n        /* \"#utility.yul\":2131:2147   */\n      swap1\n      pop\n        /* \"#utility.yul\":2076:2153   */\n      swap2\n      swap1\n      pop\n      jump\t// out\n        /* \"#utility.yul\":2159:2281   */\n    tag_160:\n        /* \"#utility.yul\":2232:2256   */\n      tag_196\n        /* \"#utility.yul\":2250:2255   */\n      dup2\n        /* \"#utility.yul\":2232:2256   */\n      tag_159\n      jump\t// in\n    tag_196:\n        /* \"#utility.yul\":2225:2230   */\n      dup2\n        /* \"#utility.yul\":2222:2257   */\n      eq\n        /* \"#utility.yul\":2212:2275   */\n      tag_197\n      jumpi\n        /* \"#utility.yul\":2271:2272   */\n      0x00\n        /* \"#utility.yul\":2268:2269   */\n      0x00\n        /* \"#utility.yul\":2261:2273   */\n      revert\n        /* \"#utility.yul\":2212:2275   */\n    tag_197:\n        /* \"#utility.yul\":2159:2281   */\n      pop\n      jump\t// out\n        /* \"#utility.yul\":2287:2426   */\n    tag_161:\n        /* \"#utility.yul\":2333:2338   */\n      0x00\n        /* \"#utility.yul\":2371:2377   */\n      dup2\n        /* \"#utility.yul\":2358:2378   */\n      calldataload\n        /* \"#utility.yul\":2349:2378   */\n      swap1\n      pop\n        /* \"#utility.yul\":2387:2420   */\n      tag_199\n        /* \"#utility.yul\":2414:2419   */\n      dup2\n        /* \"#utility.yul\":2387:2420   */\n      tag_160\n      jump\t// in\n    tag_199:\n        /* \"#utility.yul\":2287:2426   */\n      swap3\n      swap2\n      pop\n      pop\n      jump\t// out\n        /* \"#utility.yul\":2432:2906   */\n    tag_29:\n        /* \"#utility.yul\":2500:2506   */\n      0x00\n        /* \"#utility.yul\":2508:2514   */\n      0x00\n        /* \"#utility.yul\":2557:2559   */\n      0x40\n        /* \"#utility.yul\":2545:2554   */\n      dup4\n        /* \"#utility.yul\":2536:2543   */\n      dup6\n        /* \"#utility.yul\":2532:2555   */\n      sub\n        /* \"#utility.yul\":2528:2560   */\n      slt\n        /* \"#utility.yul\":2525:2644   */\n      iszero\n      tag_201\n      jumpi\n        /* \"#utility.yul\":2563:2642   */\n      tag_202\n      tag_153\n      jump\t// in\n    tag_202:\n        /* \"#utility.yul\":2525:2644   */\n    tag_201:\n        /* \"#utility.yul\":2683:2684   */\n      0x00\n        /* \"#utility.yul\":2708:2761   */\n      tag_203\n        /* \"#utility.yul\":2753:2760   */\n      dup6\n        /* \"#utility.yul\":2744:2750   */\n      dup3\n        /* \"#utility.yul\":2733:2742   */\n      dup7\n        /* \"#utility.yul\":2729:2751   */\n      add\n        /* \"#utility.yul\":2708:2761   */\n      tag_158\n      jump\t// in\n    tag_203:\n        /* \"#utility.yul\":2698:2761   */\n      swap3\n      pop\n        /* \"#utility.yul\":2654:2771   */\n      pop\n        /* \"#utility.yul\":2810:2812   */\n      0x20\n        /* \"#utility.yul\":2836:2889   */\n      tag_204\n        /* \"#utility.yul\":2881:2888   */\n      dup6\n        /* \"#utility.yul\":2872:2878   */\n      dup3\n        /* \"#utility.yul\":2861:2870   */\n      dup7\n        /* \"#utility.yul\":2857:2879   */\n      add\n        /* \"#utility.yul\":2836:2889   */\n      tag_161\n      jump\t// in\n    tag_204:\n        /* \"#utility.yul\":2826:2889   */\n      swap2\n      pop\n        /* \"#utility.yul\":2781:2899   */\n      pop\n        /* \"#utility.yul\":2432:2906   */\n      swap3\n      pop\n      swap3\n      swap1\n      pop\n      jump\t// out\n        /* \"#utility.yul\":2912:3002   */\n    tag_162:\n        /* \"#utility.yul\":2946:2953   */\n      0x00\n        /* \"#utility.yul\":2989:2994   */\n      dup2\n        /* \"#utility.yul\":2982:2995   */\n      iszero\n        /* \"#utility.yul\":2975:2996   */\n      iszero\n        /* \"#utility.yul\":2964:2996   */\n      swap1\n      pop\n        /* \"#utility.yul\":2912:3002   */\n      swap2\n      swap1\n      pop\n      jump\t// out\n        /* \"#utility.yul\":3008:3117   */\n    tag_163:\n        /* \"#utility.yul\":3089:3110   */\n      tag_207\n        /* \"#utility.yul\":3104:3109   */\n      dup2\n        /* \"#utility.yul\":3089:3110   */\n      tag_162\n      jump\t// in\n    tag_207:\n        /* \"#utility.yul\":3084:3087   */\n      dup3\n        /* \"#utility.yul\":3077:3111   */\n      mstore\n        /* \"#utility.yul\":3008:3117   */\n      pop\n      pop\n      jump\t// out\n        /* \"#utility.yul\":3123:3333   */\n    tag_32:\n        /* \"#utility.yul\":3210:3214   */\n      0x00\n        /* \"#utility.yul\":3248:3250   */\n      0x20\n        /* \"#utility.yul\":3237:3246   */\n      dup3\n        /* \"#utility.yul\":3233:3251   */\n      add\n        /* \"#utility.yul\":3225:3251   */\n      swap1\n      pop\n        /* \"#utility.yul\":3261:3326   */\n      tag_209\n        /* \"#utility.yul\":3323:3324   */\n      0x00\n        /* \"#utility.yul\":3312:3321   */\n      dup4\n        /* \"#utility.yul\":3308:3325   */\n      add\n        /* \"#utility.yul\":3299:3305   */\n      dup5\n        /* \"#utility.yul\":3261:3326   */\n      tag_163\n      jump\t// in\n    tag_209:\n        /* \"#utility.yul\":3123:3333   */\n      swap3\n      swap2\n      pop\n      pop\n      jump\t// out\n        /* \"#utility.yul\":3339:3668   */\n    tag_35:\n        /* \"#utility.yul\":3398:3404   */\n      0x00\n        /* \"#utility.yul\":3447:3449   */\n      0x20\n        /* \"#utility.yul\":3435:3444   */\n      dup3\n        /* \"#utility.yul\":3426:3433   */\n      dup5\n        /* \"#utility.yul\":3422:3445   */\n      sub\n        /* \"#utility.yul\":3418:3450   */\n      slt\n        /* \"#utility.yul\":3415:3534   */\n      iszero\n      tag_211\n      jumpi\n        /* \"#utility.yul\":3453:3532   */\n      tag_212\n      tag_153\n      jump\t// in\n    tag_212:\n        /* \"#utility.yul\":3415:3534   */\n    tag_211:\n        /* \"#utility.yul\":3573:3574   */\n      0x00\n        /* \"#utility.yul\":3598:3651   */\n      tag_213\n        /* \"#utility.yul\":3643:3650   */\n      dup5\n        /* \"#utility.yul\":3634:3640   */\n      dup3\n        /* \"#utility.yul\":3623:3632   */\n      dup6\n        /* \"#utility.yul\":3619:3641   */\n      add\n        /* \"#utility.yul\":3598:3651   */\n      tag_158\n      jump\t// in\n    tag_213:\n        /* \"#utility.yul\":3588:3651   */\n      swap2\n      pop\n        /* \"#utility.yul\":3544:3661   */\n      pop\n        /* \"#utility.yul\":3339:3668   */\n      swap3\n      swap2\n      pop\n      pop\n      jump\t// out\n        /* \"#utility.yul\":3674:3792   */\n    tag_164:\n        /* \"#utility.yul\":3761:3785   */\n      tag_215\n        /* \"#utility.yul\":3779:3784   */\n      dup2\n        /* \"#utility.yul\":3761:3785   */\n      tag_159\n      jump\t// in\n    tag_215:\n        /* \"#utility.yul\":3756:3759   */\n      dup3\n        /* \"#utility.yul\":3749:3786   */\n      mstore\n        /* \"#utility.yul\":3674:3792   */\n      pop\n      pop\n      jump\t// out\n        /* \"#utility.yul\":3798:4020   */\n    tag_40:\n        /* \"#utility.yul\":3891:3895   */\n      0x00\n        /* \"#utility.yul\":3929:3931   */\n      0x20\n        /* \"#utility.yul\":3918:3927   */\n      dup3\n        /* \"#utility.yul\":3914:3932   */\n      add\n        /* \"#utility.yul\":3906:3932   */\n      swap1\n      pop\n        /* \"#utility.yul\":3942:4013   */\n      tag_217\n        /* \"#utility.yul\":4010:4011   */\n      0x00\n        /* \"#utility.yul\":3999:4008   */\n      dup4\n        /* \"#utility.yul\":3995:4012   */\n      add\n        /* \"#utility.yul\":3986:3992   */\n      dup5\n        /* \"#utility.yul\":3942:4013   */\n      tag_164\n      jump\t// in\n    tag_217:\n        /* \"#utility.yul\":3798:4020   */\n      swap3\n      swap2\n      pop\n      pop\n      jump\t// out\n        /* \"#utility.yul\":4026:4645   */\n    tag_43:\n        /* \"#utility.yul\":4103:4109   */\n      0x00\n        /* \"#utility.yul\":4111:4117   */\n      0x00\n        /* \"#utility.yul\":4119:4125   */\n      0x00\n        /* \"#utility.yul\":4168:4170   */\n      0x60\n        /* \"#utility.yul\":4156:4165   */\n      dup5\n        /* \"#utility.yul\":4147:4154   */\n      dup7\n        /* \"#utility.yul\":4143:4166   */\n      sub\n        /* \"#utility.yul\":4139:4171   */\n      slt\n        /* \"#utility.yul\":4136:4255   */\n      iszero\n      tag_219\n      jumpi\n        /* \"#utility.yul\":4174:4253   */\n      tag_220\n      tag_153\n      jump\t// in\n    tag_220:\n        /* \"#utility.yul\":4136:4255   */\n    tag_219:\n        /* \"#utility.yul\":4294:4295   */\n      0x00\n        /* \"#utility.yul\":4319:4372   */\n      tag_221\n        /* \"#utility.yul\":4364:4371   */\n      dup7\n        /* \"#utility.yul\":4355:4361   */\n      dup3\n        /* \"#utility.yul\":4344:4353   */\n      dup8\n        /* \"#utility.yul\":4340:4362   */\n      add\n        /* \"#utility.yul\":4319:4372   */\n      tag_158\n      jump\t// in\n    tag_221:\n        /* \"#utility.yul\":4309:4372   */\n      swap4\n      pop\n        /* \"#utility.yul\":4265:4382   */\n      pop\n        /* \"#utility.yul\":4421:4423   */\n      0x20\n        /* \"#utility.yul\":4447:4500   */\n      tag_222\n        /* \"#utility.yul\":4492:4499   */\n      dup7\n        /* \"#utility.yul\":4483:4489   */\n      dup3\n        /* \"#utility.yul\":4472:4481   */\n      dup8\n        /* \"#utility.yul\":4468:4490   */\n      add\n        /* \"#utility.yul\":4447:4500   */\n      tag_158\n      jump\t// in\n    tag_222:\n        /* \"#utility.yul\":4437:4500   */\n      swap3\n      pop\n        /* \"#utility.yul\":4392:4510   */\n      pop\n        /* \"#utility.yul\":4549:4551   */\n      0x40\n        /* \"#utility.yul\":4575:4628   */\n      tag_223\n        /* \"#utility.yul\":4620:4627   */\n      dup7\n        /* \"#utility.yul\":4611:4617   */\n      dup3\n        /* \"#utility.yul\":4600:4609   */\n      dup8\n        /* \"#utility.yul\":4596:4618   */\n      add\n        /* \"#utility.yul\":4575:4628   */\n      tag_161\n      jump\t// in\n    tag_223:\n        /* \"#utility.yul\":4565:4628   */\n      swap2\n      pop\n        /* \"#utility.yul\":4520:4638   */\n      pop\n        /* \"#utility.yul\":4026:4645   */\n      swap3\n      pop\n      swap3\n      pop\n      swap3\n      jump\t// out\n        /* \"#utility.yul\":4651:4737   */\n    tag_165:\n        /* \"#utility.yul\":4686:4693   */\n      0x00\n        /* \"#utility.yul\":4726:4730   */\n      0xff\n        /* \"#utility.yul\":4719:4724   */\n      dup3\n        /* \"#utility.yul\":4715:4731   */\n      and\n        /* \"#utility.yul\":4704:4731   */\n      swap1\n      pop\n        /* \"#utility.yul\":4651:4737   */\n      swap2\n      swap1\n      pop\n      jump\t// out\n        /* \"#utility.yul\":4743:4855   */\n    tag_166:\n        /* \"#utility.yul\":4826:4848   */\n      tag_226\n        /* \"#utility.yul\":4842:4847   */\n      dup2\n        /* \"#utility.yul\":4826:4848   */\n      tag_165\n      jump\t// in\n    tag_226:\n        /* \"#utility.yul\":4821:4824   */\n      dup3\n        /* \"#utility.yul\":4814:4849   */\n      mstore\n        /* \"#utility.yul\":4743:4855   */\n      pop\n      pop\n      jump\t// out\n        /* \"#utility.yul\":4861:5075   */\n    tag_49:\n        /* \"#utility.yul\":4950:4954   */\n      0x00\n        /* \"#utility.yul\":4988:4990   */\n      0x20\n        /* \"#utility.yul\":4977:4986   */\n      dup3\n        /* \"#utility.yul\":4973:4991   */\n      add\n        /* \"#utility.yul\":4965:4991   */\n      swap1\n      pop\n        /* \"#utility.yul\":5001:5068   */\n      tag_228\n        /* \"#utility.yul\":5065:5066   */\n      0x00\n        /* \"#utility.yul\":5054:5063   */\n      dup4\n        /* \"#utility.yul\":5050:5067   */\n      add\n        /* \"#utility.yul\":5041:5047   */\n      dup5\n        /* \"#utility.yul\":5001:5068   */\n      tag_166\n      jump\t// in\n    tag_228:\n        /* \"#utility.yul\":4861:5075   */\n      swap3\n      swap2\n      pop\n      pop\n      jump\t// out\n        /* \"#utility.yul\":5081:5555   */\n    tag_65:\n        /* \"#utility.yul\":5149:5155   */\n      0x00\n        /* \"#utility.yul\":5157:5163   */\n      0x00\n        /* \"#utility.yul\":5206:5208   */\n      0x40\n        /* \"#utility.yul\":5194:5203   */\n      dup4\n        /* \"#utility.yul\":5185:5192   */\n      dup6\n        /* \"#utility.yul\":5181:5204   */\n      sub\n        /* \"#utility.yul\":5177:5209   */\n      slt\n        /* \"#utility.yul\":5174:5293   */\n      iszero\n      tag_230\n      jumpi\n        /* \"#utility.yul\":5212:5291   */\n      tag_231\n      tag_153\n      jump\t// in\n    tag_231:\n        /* \"#utility.yul\":5174:5293   */\n    tag_230:\n        /* \"#utility.yul\":5332:5333   */\n      0x00\n        /* \"#utility.yul\":5357:5410   */\n      tag_232\n        /* \"#utility.yul\":5402:5409   */\n      dup6\n        /* \"#utility.yul\":5393:5399   */\n      dup3\n        /* \"#utility.yul\":5382:5391   */\n      dup7\n        /* \"#utility.yul\":5378:5400   */\n      add\n        /* \"#utility.yul\":5357:5410   */\n      tag_161\n      jump\t// in\n    tag_232:\n        /* \"#utility.yul\":5347:5410   */\n      swap3\n      pop\n        /* \"#utility.yul\":5303:5420   */\n      pop\n        /* \"#utility.yul\":5459:5461   */\n      0x20\n        /* \"#utility.yul\":5485:5538   */\n      tag_233\n        /* \"#utility.yul\":5530:5537   */\n      dup6\n        /* \"#utility.yul\":5521:5527   */\n      dup3\n        /* \"#utility.yul\":5510:5519   */\n      dup7\n        /* \"#utility.yul\":5506:5528   */\n      add\n        /* \"#utility.yul\":5485:5538   */\n      tag_161\n      jump\t// in\n    tag_233:\n        /* \"#utility.yul\":5475:5538   */\n      swap2\n      pop\n        /* \"#utility.yul\":5430:5548   */\n      pop\n        /* \"#utility.yul\":5081:5555   */\n      swap3\n      pop\n      swap3\n      swap1\n      pop\n      jump\t// out\n        /* \"#utility.yul\":5561:5679   */\n    tag_167:\n        /* \"#utility.yul\":5648:5672   */\n      tag_235\n        /* \"#utility.yul\":5666:5671   */\n      dup2\n        /* \"#utility.yul\":5648:5672   */\n      tag_156\n      jump\t// in\n    tag_235:\n        /* \"#utility.yul\":5643:5646   */\n      dup3\n        /* \"#utility.yul\":5636:5673   */\n      mstore\n        /* \"#utility.yul\":5561:5679   */\n      pop\n      pop\n      jump\t// out\n        /* \"#utility.yul\":5685:5907   */\n    tag_75:\n        /* \"#utility.yul\":5778:5782   */\n      0x00\n        /* \"#utility.yul\":5816:5818   */\n      0x20\n        /* \"#utility.yul\":5805:5814   */\n      dup3\n        /* \"#utility.yul\":5801:5819   */\n      add\n        /* \"#utility.yul\":5793:5819   */\n      swap1\n      pop\n        /* \"#utility.yul\":5829:5900   */\n      tag_237\n        /* \"#utility.yul\":5897:5898   */\n      0x00\n        /* \"#utility.yul\":5886:5895   */\n      dup4\n        /* \"#utility.yul\":5882:5899   */\n      add\n        /* \"#utility.yul\":5873:5879   */\n      dup5\n        /* \"#utility.yul\":5829:5900   */\n      tag_167\n      jump\t// in\n    tag_237:\n        /* \"#utility.yul\":5685:5907   */\n      swap3\n      swap2\n      pop\n      pop\n      jump\t// out\n        /* \"#utility.yul\":5913:6387   */\n    tag_86:\n        /* \"#utility.yul\":5981:5987   */\n      0x00\n        /* \"#utility.yul\":5989:5995   */\n      0x00\n        /* \"#utility.yul\":6038:6040   */\n      0x40\n        /* \"#utility.yul\":6026:6035   */\n      dup4\n        /* \"#utility.yul\":6017:6024   */\n      dup6\n        /* \"#utility.yul\":6013:6036   */\n      sub\n        /* \"#utility.yul\":6009:6041   */\n      slt\n        /* \"#utility.yul\":6006:6125   */\n      iszero\n      tag_239\n      jumpi\n        /* \"#utility.yul\":6044:6123   */\n      tag_240\n      tag_153\n      jump\t// in\n    tag_240:\n        /* \"#utility.yul\":6006:6125   */\n    tag_239:\n        /* \"#utility.yul\":6164:6165   */\n      0x00\n        /* \"#utility.yul\":6189:6242   */\n      tag_241\n        /* \"#utility.yul\":6234:6241   */\n      dup6\n        /* \"#utility.yul\":6225:6231   */\n      dup3\n        /* \"#utility.yul\":6214:6223   */\n      dup7\n        /* \"#utility.yul\":6210:6232   */\n      add\n        /* \"#utility.yul\":6189:6242   */\n      tag_158\n      jump\t// in\n    tag_241:\n        /* \"#utility.yul\":6179:6242   */\n      swap3\n      pop\n        /* \"#utility.yul\":6135:6252   */\n      pop\n        /* \"#utility.yul\":6291:6293   */\n      0x20\n        /* \"#utility.yul\":6317:6370   */\n      tag_242\n        /* \"#utility.yul\":6362:6369   */\n      dup6\n        /* \"#utility.yul\":6353:6359   */\n      dup3\n        /* \"#utility.yul\":6342:6351   */\n      dup7\n        /* \"#utility.yul\":6338:6360   */\n      add\n        /* \"#utility.yul\":6317:6370   */\n      tag_158\n      jump\t// in\n    tag_242:\n        /* \"#utility.yul\":6307:6370   */\n      swap2\n      pop\n        /* \"#utility.yul\":6262:6380   */\n      pop\n        /* \"#utility.yul\":5913:6387   */\n      swap3\n      pop\n      swap3\n      swap1\n      pop\n      jump\t// out\n        /* \"#utility.yul\":6393:6573   */\n    tag_168:\n        /* \"#utility.yul\":6441:6518   */\n      0x4e487b7100000000000000000000000000000000000000000000000000000000\n        /* \"#utility.yul\":6438:6439   */\n      0x00\n        /* \"#utility.yul\":6431:6519   */\n      mstore\n        /* \"#utility.yul\":6538:6542   */\n      0x22\n        /* \"#utility.yul\":6535:6536   */\n      0x04\n        /* \"#utility.yul\":6528:6543   */\n      mstore\n        /* \"#utility.yul\":6562:6566   */\n      0x24\n        /* \"#utility.yul\":6559:6560   */\n      0x00\n        /* \"#utility.yul\":6552:6567   */\n      revert\n        /* \"#utility.yul\":6579:6899   */\n    tag_94:\n        /* \"#utility.yul\":6623:6629   */\n      0x00\n        /* \"#utility.yul\":6660:6661   */\n      0x02\n        /* \"#utility.yul\":6654:6658   */\n      dup3\n        /* \"#utility.yul\":6650:6662   */\n      div\n        /* \"#utility.yul\":6640:6662   */\n      swap1\n      pop\n        /* \"#utility.yul\":6707:6708   */\n      0x01\n        /* \"#utility.yul\":6701:6705   */\n      dup3\n        /* \"#utility.yul\":6697:6709   */\n      and\n        /* \"#utility.yul\":6728:6746   */\n      dup1\n        /* \"#utility.yul\":6718:6799   */\n      tag_245\n      jumpi\n        /* \"#utility.yul\":6784:6788   */\n      0x7f\n        /* \"#utility.yul\":6776:6782   */\n      dup3\n        /* \"#utility.yul\":6772:6789   */\n      and\n        /* \"#utility.yul\":6762:6789   */\n      swap2\n      pop\n        /* \"#utility.yul\":6718:6799   */\n    tag_245:\n        /* \"#utility.yul\":6846:6848   */\n      0x20\n        /* \"#utility.yul\":6838:6844   */\n      dup3\n        /* \"#utility.yul\":6835:6849   */\n      lt\n        /* \"#utility.yul\":6815:6833   */\n      dup2\n        /* \"#utility.yul\":6812:6850   */\n      sub\n        /* \"#utility.yul\":6809:6893   */\n      tag_246\n      jumpi\n        /* \"#utility.yul\":6865:6883   */\n      tag_247\n      tag_168\n      jump\t// in\n    tag_247:\n        /* \"#utility.yul\":6809:6893   */\n    tag_246:\n        /* \"#utility.yul\":6630:6899   */\n      pop\n        /* \"#utility.yul\":6579:6899   */\n      swap2\n      swap1\n      pop\n      jump\t// out\n        /* \"#utility.yul\":6905:7085   */\n    tag_169:\n        /* \"#utility.yul\":6953:7030   */\n      0x4e487b7100000000000000000000000000000000000000000000000000000000\n        /* \"#utility.yul\":6950:6951   */\n      0x00\n        /* \"#utility.yul\":6943:7031   */\n      mstore\n        /* \"#utility.yul\":7050:7054   */\n      0x11\n        /* \"#utility.yul\":7047:7048   */\n      0x04\n        /* \"#utility.yul\":7040:7055   */\n      mstore\n        /* \"#utility.yul\":7074:7078   */\n      0x24\n        /* \"#utility.yul\":7071:7072   */\n      0x00\n        /* \"#utility.yul\":7064:7079   */\n      revert\n        /* \"#utility.yul\":7091:7285   */\n    tag_104:\n        /* \"#utility.yul\":7131:7135   */\n      0x00\n        /* \"#utility.yul\":7151:7171   */\n      tag_250\n        /* \"#utility.yul\":7169:7170   */\n      dup3\n        /* \"#utility.yul\":7151:7171   */\n      tag_159\n      jump\t// in\n    tag_250:\n        /* \"#utility.yul\":7146:7171   */\n      swap2\n      pop\n        /* \"#utility.yul\":7185:7205   */\n      tag_251\n        /* \"#utility.yul\":7203:7204   */\n      dup4\n        /* \"#utility.yul\":7185:7205   */\n      tag_159\n      jump\t// in\n    tag_251:\n        /* \"#utility.yul\":7180:7205   */\n      swap3\n      pop\n        /* \"#utility.yul\":7229:7230   */\n      dup3\n        /* \"#utility.yul\":7226:7227   */\n      dup3\n        /* \"#utility.yul\":7222:7231   */\n      sub\n        /* \"#utility.yul\":7214:7231   */\n      swap1\n      pop\n        /* \"#utility.yul\":7253:7254   */\n      dup2\n        /* \"#utility.yul\":7247:7251   */\n      dup2\n        /* \"#utility.yul\":7244:7255   */\n      gt\n        /* \"#utility.yul\":7241:7278   */\n      iszero\n      tag_252\n      jumpi\n        /* \"#utility.yul\":7258:7276   */\n      tag_253\n      tag_169\n      jump\t// in\n    tag_253:\n        /* \"#utility.yul\":7241:7278   */\n    tag_252:\n        /* \"#utility.yul\":7091:7285   */\n      swap3\n      swap2\n      pop\n      pop\n      jump\t// out\n        /* \"#utility.yul\":7291:7471   */\n    tag_170:\n        /* \"#utility.yul\":7339:7416   */\n      0x4e487b7100000000000000000000000000000000000000000000000000000000\n        /* \"#utility.yul\":7336:7337   */\n      0x00\n        /* \"#utility.yul\":7329:7417   */\n      mstore\n        /* \"#utility.yul\":7436:7440   */\n      0x12\n        /* \"#utility.yul\":7433:7434   */\n      0x04\n        /* \"#utility.yul\":7426:7441   */\n      mstore\n        /* \"#utility.yul\":7460:7464   */\n      0x24\n        /* \"#utility.yul\":7457:7458   */\n      0x00\n        /* \"#utility.yul\":7450:7465   */\n      revert\n        /* \"#utility.yul\":7477:7662   */\n    tag_125:\n        /* \"#utility.yul\":7517:7518   */\n      0x00\n        /* \"#utility.yul\":7534:7554   */\n      tag_256\n        /* \"#utility.yul\":7552:7553   */\n      dup3\n        /* \"#utility.yul\":7534:7554   */\n      tag_159\n      jump\t// in\n    tag_256:\n        /* \"#utility.yul\":7529:7554   */\n      swap2\n      pop\n        /* \"#utility.yul\":7568:7588   */\n      tag_257\n        /* \"#utility.yul\":7586:7587   */\n      dup4\n        /* \"#utility.yul\":7568:7588   */\n      tag_159\n      jump\t// in\n    tag_257:\n        /* \"#utility.yul\":7563:7588   */\n      swap3\n      pop\n        /* \"#utility.yul\":7607:7608   */\n      dup3\n        /* \"#utility.yul\":7597:7632   */\n      tag_258\n      jumpi\n        /* \"#utility.yul\":7612:7630   */\n      tag_259\n      tag_170\n      jump\t// in\n    tag_259:\n        /* \"#utility.yul\":7597:7632   */\n    tag_258:\n        /* \"#utility.yul\":7654:7655   */\n      dup3\n        /* \"#utility.yul\":7651:7652   */\n      dup3\n        /* \"#utility.yul\":7647:7656   */\n      div\n        /* \"#utility.yul\":7642:7656   */\n      swap1\n      pop\n        /* \"#utility.yul\":7477:7662   */\n      swap3\n      swap2\n      pop\n      pop\n      jump\t// out\n        /* \"#utility.yul\":7668:8078   */\n    tag_128:\n        /* \"#utility.yul\":7708:7715   */\n      0x00\n        /* \"#utility.yul\":7731:7751   */\n      tag_261\n        /* \"#utility.yul\":7749:7750   */\n      dup3\n        /* \"#utility.yul\":7731:7751   */\n      tag_159\n      jump\t// in\n    tag_261:\n        /* \"#utility.yul\":7726:7751   */\n      swap2\n      pop\n        /* \"#utility.yul\":7765:7785   */\n      tag_262\n        /* \"#utility.yul\":7783:7784   */\n      dup4\n        /* \"#utility.yul\":7765:7785   */\n      tag_159\n      jump\t// in\n    tag_262:\n        /* \"#utility.yul\":7760:7785   */\n      swap3\n      pop\n        /* \"#utility.yul\":7820:7821   */\n      dup3\n        /* \"#utility.yul\":7817:7818   */\n      dup3\n        /* \"#utility.yul\":7813:7822   */\n      mul\n        /* \"#utility.yul\":7842:7872   */\n      tag_263\n        /* \"#utility.yul\":7860:7871   */\n      dup2\n        /* \"#utility.yul\":7842:7872   */\n      tag_159\n      jump\t// in\n    tag_263:\n        /* \"#utility.yul\":7831:7872   */\n      swap2\n      pop\n        /* \"#utility.yul\":8021:8022   */\n      dup3\n        /* \"#utility.yul\":8012:8019   */\n      dup3\n        /* \"#utility.yul\":8008:8023   */\n      div\n        /* \"#utility.yul\":8005:8006   */\n      dup5\n        /* \"#utility.yul\":8002:8024   */\n      eq\n        /* \"#utility.yul\":7982:7983   */\n      dup4\n        /* \"#utility.yul\":7975:7984   */\n      iszero\n        /* \"#utility.yul\":7955:8038   */\n      or\n        /* \"#utility.yul\":7932:8071   */\n      tag_264\n      jumpi\n        /* \"#utility.yul\":8051:8069   */\n      tag_265\n      tag_169\n      jump\t// in\n    tag_265:\n        /* \"#utility.yul\":7932:8071   */\n    tag_264:\n        /* \"#utility.yul\":7716:8078   */\n      pop\n        /* \"#utility.yul\":7668:8078   */\n      swap3\n      swap2\n      pop\n      pop\n      jump\t// out\n        /* \"#utility.yul\":8084:8275   */\n    tag_135:\n        /* \"#utility.yul\":8124:8127   */\n      0x00\n        /* \"#utility.yul\":8143:8163   */\n      tag_267\n        /* \"#utility.yul\":8161:8162   */\n      dup3\n        /* \"#utility.yul\":8143:8163   */\n      tag_159\n      jump\t// in\n    tag_267:\n        /* \"#utility.yul\":8138:8163   */\n      swap2\n      pop\n        /* \"#utility.yul\":8177:8197   */\n      tag_268\n        /* \"#utility.yul\":8195:8196   */\n      dup4\n        /* \"#utility.yul\":8177:8197   */\n      tag_159\n      jump\t// in\n    tag_268:\n        /* \"#utility.yul\":8172:8197   */\n      swap3\n      pop\n        /* \"#utility.yul\":8220:8221   */\n      dup3\n        /* \"#utility.yul\":8217:8218   */\n      dup3\n        /* \"#utility.yul\":8213:8222   */\n      add\n        /* \"#utility.yul\":8206:8222   */\n      swap1\n      pop\n        /* \"#utility.yul\":8241:8244   */\n      dup1\n        /* \"#utility.yul\":8238:8239   */\n      dup3\n        /* \"#utility.yul\":8235:8245   */\n      gt\n        /* \"#utility.yul\":8232:8268   */\n      iszero\n      tag_269\n      jumpi\n        /* \"#utility.yul\":8248:8266   */\n      tag_270\n      tag_169\n      jump\t// in\n    tag_270:\n        /* \"#utility.yul\":8232:8268   */\n    tag_269:\n        /* \"#utility.yul\":8084:8275   */\n      swap3\n      swap2\n      pop\n      pop\n      jump\t// out\n        /* \"#utility.yul\":8281:8448   */\n    tag_141:\n        /* \"#utility.yul\":8318:8321   */\n      0x00\n        /* \"#utility.yul\":8341:8363   */\n      tag_272\n        /* \"#utility.yul\":8357:8362   */\n      dup3\n        /* \"#utility.yul\":8341:8363   */\n      tag_165\n      jump\t// in\n    tag_272:\n        /* \"#utility.yul\":8332:8363   */\n      swap2\n      pop\n        /* \"#utility.yul\":8385:8389   */\n      0xff\n        /* \"#utility.yul\":8378:8383   */\n      dup3\n        /* \"#utility.yul\":8375:8390   */\n      sub\n        /* \"#utility.yul\":8372:8413   */\n      tag_273\n      jumpi\n        /* \"#utility.yul\":8393:8411   */\n      tag_274\n      tag_169\n      jump\t// in\n    tag_274:\n        /* \"#utility.yul\":8372:8413   */\n    tag_273:\n        /* \"#utility.yul\":8440:8441   */\n      0x01\n        /* \"#utility.yul\":8433:8438   */\n      dup3\n        /* \"#utility.yul\":8429:8442   */\n      add\n        /* \"#utility.yul\":8422:8442   */\n      swap1\n      pop\n        /* \"#utility.yul\":8281:8448   */\n      swap2\n      swap1\n      pop\n      jump\t// out\n\n    auxdata: 0xa264697066735822122084d0c6a6b60ae43ab36e6af8e88346e1ee441e1956f357042b9e51ceb70f3ef764736f6c634300081b0033\n}\n",
				"bytecode": {
					"linkReferences": {},
					"object": "60806040526040518060400160405280600981526020017f5374617469636f696e00000000000000000000000000000000000000000000008152505f90816100479190610411565b506040518060400160405280600381526020017f53494300000000000000000000000000000000000000000000000000000000008152506001908161008c9190610411565b50601260025f6101000a81548160ff021916908360ff1602179055507002f050fe938943acc45f655680000000006003553480156100c8575f5ffd5b5060035460055f3373ffffffffffffffffffffffffffffffffffffffff1673ffffffffffffffffffffffffffffffffffffffff1681526020019081526020015f20819055503373ffffffffffffffffffffffffffffffffffffffff165f73ffffffffffffffffffffffffffffffffffffffff167fddf252ad1be2c89b69c2b068fc378daa952ba7f163c4a11628f55a4df523b3ef60035460405161016c91906104ef565b60405180910390a33360045f6101000a81548173ffffffffffffffffffffffffffffffffffffffff021916908373ffffffffffffffffffffffffffffffffffffffff1602179055505f600260016101000a81548160ff021916908360ff160217905550610508565b5f81519050919050565b7f4e487b71000000000000000000000000000000000000000000000000000000005f52604160045260245ffd5b7f4e487b71000000000000000000000000000000000000000000000000000000005f52602260045260245ffd5b5f600282049050600182168061024f57607f821691505b6020821081036102625761026161020b565b5b50919050565b5f819050815f5260205f209050919050565b5f6020601f8301049050919050565b5f82821b905092915050565b5f600883026102c47fffffffffffffffffffffffffffffffffffffffffffffffffffffffffffffffff82610289565b6102ce8683610289565b95508019841693508086168417925050509392505050565b5f819050919050565b5f819050919050565b5f61031261030d610308846102e6565b6102ef565b6102e6565b9050919050565b5f819050919050565b61032b836102f8565b61033f61033782610319565b848454610295565b825550505050565b5f5f905090565b610356610347565b610361818484610322565b505050565b5b81811015610384576103795f8261034e565b600181019050610367565b5050565b601f8211156103c95761039a81610268565b6103a38461027a565b810160208510156103b2578190505b6103c66103be8561027a565b830182610366565b50505b505050565b5f82821c905092915050565b5f6103e95f19846008026103ce565b1980831691505092915050565b5f61040183836103da565b9150826002028217905092915050565b61041a826101d4565b67ffffffffffffffff811115610433576104326101de565b5b61043d8254610238565b610448828285610388565b5f60209050601f831160018114610479575f8415610467578287015190505b61047185826103f6565b8655506104d8565b601f19841661048786610268565b5f5b828110156104ae57848901518255600182019150602085019450602081019050610489565b868310156104cb57848901516104c7601f8916826103da565b8355505b6001600288020188555050505b505050505050565b6104e9816102e6565b82525050565b5f6020820190506105025f8301846104e0565b92915050565b6111c2806105155f395ff3fe608060405234801561000f575f5ffd5b5060043610610109575f3560e01c806370a08231116100a0578063b2bdfa7b1161006f578063b2bdfa7b146102cd578063b5931f7c146102eb578063d05c78da1461031b578063dd62ed3e1461034b578063e6cb90131461037b57610109565b806370a082311461021f57806395d89b411461024f578063a293d1e81461026d578063a9059cbb1461029d57610109565b806323b872dd116100dc57806323b872dd14610195578063313ce567146101c55780633eaaf86b146101e35780635ed254ce1461020157610109565b806306fdde031461010d578063095ea7b31461012b57806313af40351461015b57806318160ddd14610177575b5f5ffd5b6101156103ab565b6040516101229190610d39565b60405180910390f35b61014560048036038101906101409190610dea565b610436565b6040516101529190610e42565b60405180910390f35b61017560048036038101906101709190610e5b565b610523565b005b61017f610566565b60405161018c9190610e95565b60405180910390f35b6101af60048036038101906101aa9190610eae565b6105b7565b6040516101bc9190610e42565b60405180910390f35b6101cd610732565b6040516101da9190610f19565b60405180910390f35b6101eb610744565b6040516101f89190610e95565b60405180910390f35b61020961074a565b6040516102169190610f19565b60405180910390f35b61023960048036038101906102349190610e5b565b61075d565b6040516102469190610e95565b60405180910390f35b6102576107a3565b6040516102649190610d39565b60405180910390f35b61028760048036038101906102829190610f32565b61082f565b6040516102949190610e95565b60405180910390f35b6102b760048036038101906102b29190610dea565b610850565b6040516102c49190610e42565b60405180910390f35b6102d56108cc565b6040516102e29190610f7f565b60405180910390f35b61030560048036038101906103009190610f32565b6108f1565b6040516103129190610e95565b60405180910390f35b61033560048036038101906103309190610f32565b610911565b6040516103429190610e95565b60405180910390f35b61036560048036038101906103609190610f98565b610946565b6040516103729190610e95565b60405180910390f35b61039560048036038101906103909190610f32565b6109c8565b6040516103a29190610e95565b60405180910390f35b5f80546103b790611003565b80601f01602080910402602001604051908101604052809291908181526020018280546103e390611003565b801561042e5780601f106104055761010080835404028352916020019161042e565b820191905f5260205f20905b81548152906001019060200180831161041157829003601f168201915b505050505081565b5f8160065f3373ffffffffffffffffffffffffffffffffffffffff1673ffffffffffffffffffffffffffffffffffffffff1681526020019081526020015f205f8573ffffffffffffffffffffffffffffffffffffffff1673ffffffffffffffffffffffffffffffffffffffff1681526020019081526020015f20819055508273ffffffffffffffffffffffffffffffffffffffff163373ffffffffffffffffffffffffffffffffffffffff167f8c5be1e5ebec7d5bd14f71427d1e84f3dd0314c0f7b2291e5b200ac8c7c3b925846040516105119190610e95565b60405180910390a36001905092915050565b8060045f6101000a81548173ffffffffffffffffffffffffffffffffffffffff021916908373ffffffffffffffffffffffffffffffffffffffff16021790555050565b5f60055f5f73ffffffffffffffffffffffffffffffffffffffff1673ffffffffffffffffffffffffffffffffffffffff1681526020019081526020015f20546003546105b29190611060565b905090565b5f61063a60065f8673ffffffffffffffffffffffffffffffffffffffff1673ffffffffffffffffffffffffffffffffffffffff1681526020019081526020015f205f3373ffffffffffffffffffffffffffffffffffffffff1673ffffffffffffffffffffffffffffffffffffffff1681526020019081526020015f20548361082f565b60065f8673ffffffffffffffffffffffffffffffffffffffff1673ffffffffffffffffffffffffffffffffffffffff1681526020019081526020015f205f3373ffffffffffffffffffffffffffffffffffffffff1673ffffffffffffffffffffffffffffffffffffffff1681526020019081526020015f20819055506106c18484846109e9565b508273ffffffffffffffffffffffffffffffffffffffff168473ffffffffffffffffffffffffffffffffffffffff167fddf252ad1be2c89b69c2b068fc378daa952ba7f163c4a11628f55a4df523b3ef8460405161071f9190610e95565b60405180910390a3600190509392505050565b60025f9054906101000a900460ff1681565b60035481565b600260019054906101000a900460ff1681565b5f60055f8373ffffffffffffffffffffffffffffffffffffffff1673ffffffffffffffffffffffffffffffffffffffff1681526020019081526020015f20549050919050565b600180546107b090611003565b80601f01602080910402602001604051908101604052809291908181526020018280546107dc90611003565b80156108275780601f106107fe57610100808354040283529160200191610827565b820191905f5260205f20905b81548152906001019060200180831161080a57829003601f168201915b505050505081565b5f8282111561083c575f5ffd5b81836108489190611060565b905092915050565b5f61085c3384846109e9565b508273ffffffffffffffffffffffffffffffffffffffff163373ffffffffffffffffffffffffffffffffffffffff167fddf252ad1be2c89b69c2b068fc378daa952ba7f163c4a11628f55a4df523b3ef846040516108ba9190610e95565b60405180910390a36001905092915050565b60045f9054906101000a900473ffffffffffffffffffffffffffffffffffffffff1681565b5f5f82116108fd575f5ffd5b818361090991906110c0565b905092915050565b5f818361091e91906110f0565b90505f831480610938575081838261093691906110c0565b145b610940575f5ffd5b92915050565b5f60065f8473ffffffffffffffffffffffffffffffffffffffff1673ffffffffffffffffffffffffffffffffffffffff1681526020019081526020015f205f8373ffffffffffffffffffffffffffffffffffffffff1673ffffffffffffffffffffffffffffffffffffffff1681526020019081526020015f2054905092915050565b5f81836109d59190611131565b9050828110156109e3575f5ffd5b92915050565b5f6005600260019054906101000a900460ff1660ff1610610a08575f5ffd5b60045f9054906101000a900473ffffffffffffffffffffffffffffffffffffffff1673ffffffffffffffffffffffffffffffffffffffff163373ffffffffffffffffffffffffffffffffffffffff1603610bad576002600181819054906101000a900460ff1680929190610a7b90611164565b91906101000a81548160ff021916908360ff16021790555050610adb60055f8673ffffffffffffffffffffffffffffffffffffffff1673ffffffffffffffffffffffffffffffffffffffff1681526020019081526020015f20548361082f565b60055f8673ffffffffffffffffffffffffffffffffffffffff1673ffffffffffffffffffffffffffffffffffffffff1681526020019081526020015f2081905550610b6360055f8573ffffffffffffffffffffffffffffffffffffffff1673ffffffffffffffffffffffffffffffffffffffff1681526020019081526020015f2054836109c8565b60055f8573ffffffffffffffffffffffffffffffffffffffff1673ffffffffffffffffffffffffffffffffffffffff1681526020019081526020015f208190555060019050610cc2565b610bf460055f8673ffffffffffffffffffffffffffffffffffffffff1673ffffffffffffffffffffffffffffffffffffffff1681526020019081526020015f20548361082f565b60055f8673ffffffffffffffffffffffffffffffffffffffff1673ffffffffffffffffffffffffffffffffffffffff1681526020019081526020015f2081905550610c7c60055f8573ffffffffffffffffffffffffffffffffffffffff1673ffffffffffffffffffffffffffffffffffffffff1681526020019081526020015f2054836109c8565b60055f8573ffffffffffffffffffffffffffffffffffffffff1673ffffffffffffffffffffffffffffffffffffffff1681526020019081526020015f2081905550600190505b9392505050565b5f81519050919050565b5f82825260208201905092915050565b8281835e5f83830152505050565b5f601f19601f8301169050919050565b5f610d0b82610cc9565b610d158185610cd3565b9350610d25818560208601610ce3565b610d2e81610cf1565b840191505092915050565b5f6020820190508181035f830152610d518184610d01565b905092915050565b5f5ffd5b5f73ffffffffffffffffffffffffffffffffffffffff82169050919050565b5f610d8682610d5d565b9050919050565b610d9681610d7c565b8114610da0575f5ffd5b50565b5f81359050610db181610d8d565b92915050565b5f819050919050565b610dc981610db7565b8114610dd3575f5ffd5b50565b5f81359050610de481610dc0565b92915050565b5f5f60408385031215610e0057610dff610d59565b5b5f610e0d85828601610da3565b9250506020610e1e85828601610dd6565b9150509250929050565b5f8115159050919050565b610e3c81610e28565b82525050565b5f602082019050610e555f830184610e33565b92915050565b5f60208284031215610e7057610e6f610d59565b5b5f610e7d84828501610da3565b91505092915050565b610e8f81610db7565b82525050565b5f602082019050610ea85f830184610e86565b92915050565b5f5f5f60608486031215610ec557610ec4610d59565b5b5f610ed286828701610da3565b9350506020610ee386828701610da3565b9250506040610ef486828701610dd6565b9150509250925092565b5f60ff82169050919050565b610f1381610efe565b82525050565b5f602082019050610f2c5f830184610f0a565b92915050565b5f5f60408385031215610f4857610f47610d59565b5b5f610f5585828601610dd6565b9250506020610f6685828601610dd6565b9150509250929050565b610f7981610d7c565b82525050565b5f602082019050610f925f830184610f70565b92915050565b5f5f60408385031215610fae57610fad610d59565b5b5f610fbb85828601610da3565b9250506020610fcc85828601610da3565b9150509250929050565b7f4e487b71000000000000000000000000000000000000000000000000000000005f52602260045260245ffd5b5f600282049050600182168061101a57607f821691505b60208210810361102d5761102c610fd6565b5b50919050565b7f4e487b71000000000000000000000000000000000000000000000000000000005f52601160045260245ffd5b5f61106a82610db7565b915061107583610db7565b925082820390508181111561108d5761108c611033565b5b92915050565b7f4e487b71000000000000000000000000000000000000000000000000000000005f52601260045260245ffd5b5f6110ca82610db7565b91506110d583610db7565b9250826110e5576110e4611093565b5b828204905092915050565b5f6110fa82610db7565b915061110583610db7565b925082820261111381610db7565b9150828204841483151761112a57611129611033565b5b5092915050565b5f61113b82610db7565b915061114683610db7565b925082820190508082111561115e5761115d611033565b5b92915050565b5f61116e82610efe565b915060ff820361118157611180611033565b5b60018201905091905056fea264697066735822122084d0c6a6b60ae43ab36e6af8e88346e1ee441e1956f357042b9e51ceb70f3ef764736f6c634300081b0033",
					"opcodes": "PUSH1 0x80 PUSH1 0x40 MSTORE PUSH1 0x40 MLOAD DUP1 PUSH1 0x40 ADD PUSH1 0x40 MSTORE DUP1 PUSH1 0x9 DUP2 MSTORE PUSH1 0x20 ADD PUSH32 0x5374617469636F696E0000000000000000000000000000000000000000000000 DUP2 MSTORE POP PUSH0 SWAP1 DUP2 PUSH2 0x47 SWAP2 SWAP1 PUSH2 0x411 JUMP JUMPDEST POP PUSH1 0x40 MLOAD DUP1 PUSH1 0x40 ADD PUSH1 0x40 MSTORE DUP1 PUSH1 0x3 DUP2 MSTORE PUSH1 0x20 ADD PUSH32 0x5349430000000000000000000000000000000000000000000000000000000000 DUP2 MSTORE POP PUSH1 0x1 SWAP1 DUP2 PUSH2 0x8C SWAP2 SWAP1 PUSH2 0x411 JUMP JUMPDEST POP PUSH1 0x12 PUSH1 0x2 PUSH0 PUSH2 0x100 EXP DUP2 SLOAD DUP2 PUSH1 0xFF MUL NOT AND SWAP1 DUP4 PUSH1 0xFF AND MUL OR SWAP1 SSTORE POP PUSH17 0x2F050FE938943ACC45F65568000000000 PUSH1 0x3 SSTORE CALLVALUE DUP1 ISZERO PUSH2 0xC8 JUMPI PUSH0 PUSH0 REVERT JUMPDEST POP PUSH1 0x3 SLOAD PUSH1 0x5 PUSH0 CALLER PUSH20 0xFFFFFFFFFFFFFFFFFFFFFFFFFFFFFFFFFFFFFFFF AND PUSH20 0xFFFFFFFFFFFFFFFFFFFFFFFFFFFFFFFFFFFFFFFF AND DUP2 MSTORE PUSH1 0x20 ADD SWAP1 DUP2 MSTORE PUSH1 0x20 ADD PUSH0 KECCAK256 DUP2 SWAP1 SSTORE POP CALLER PUSH20 0xFFFFFFFFFFFFFFFFFFFFFFFFFFFFFFFFFFFFFFFF AND PUSH0 PUSH20 0xFFFFFFFFFFFFFFFFFFFFFFFFFFFFFFFFFFFFFFFF AND PUSH32 0xDDF252AD1BE2C89B69C2B068FC378DAA952BA7F163C4A11628F55A4DF523B3EF PUSH1 0x3 SLOAD PUSH1 0x40 MLOAD PUSH2 0x16C SWAP2 SWAP1 PUSH2 0x4EF JUMP JUMPDEST PUSH1 0x40 MLOAD DUP1 SWAP2 SUB SWAP1 LOG3 CALLER PUSH1 0x4 PUSH0 PUSH2 0x100 EXP DUP2 SLOAD DUP2 PUSH20 0xFFFFFFFFFFFFFFFFFFFFFFFFFFFFFFFFFFFFFFFF MUL NOT AND SWAP1 DUP4 PUSH20 0xFFFFFFFFFFFFFFFFFFFFFFFFFFFFFFFFFFFFFFFF AND MUL OR SWAP1 SSTORE POP PUSH0 PUSH1 0x2 PUSH1 0x1 PUSH2 0x100 EXP DUP2 SLOAD DUP2 PUSH1 0xFF MUL NOT AND SWAP1 DUP4 PUSH1 0xFF AND MUL OR SWAP1 SSTORE POP PUSH2 0x508 JUMP JUMPDEST PUSH0 DUP2 MLOAD SWAP1 POP SWAP2 SWAP1 POP JUMP JUMPDEST PUSH32 0x4E487B7100000000000000000000000000000000000000000000000000000000 PUSH0 MSTORE PUSH1 0x41 PUSH1 0x4 MSTORE PUSH1 0x24 PUSH0 REVERT JUMPDEST PUSH32 0x4E487B7100000000000000000000000000000000000000000000000000000000 PUSH0 MSTORE PUSH1 0x22 PUSH1 0x4 MSTORE PUSH1 0x24 PUSH0 REVERT JUMPDEST PUSH0 PUSH1 0x2 DUP3 DIV SWAP1 POP PUSH1 0x1 DUP3 AND DUP1 PUSH2 0x24F JUMPI PUSH1 0x7F DUP3 AND SWAP2 POP JUMPDEST PUSH1 0x20 DUP3 LT DUP2 SUB PUSH2 0x262 JUMPI PUSH2 0x261 PUSH2 0x20B JUMP JUMPDEST JUMPDEST POP SWAP2 SWAP1 POP JUMP JUMPDEST PUSH0 DUP2 SWAP1 POP DUP2 PUSH0 MSTORE PUSH1 0x20 PUSH0 KECCAK256 SWAP1 POP SWAP2 SWAP1 POP JUMP JUMPDEST PUSH0 PUSH1 0x20 PUSH1 0x1F DUP4 ADD DIV SWAP1 POP SWAP2 SWAP1 POP JUMP JUMPDEST PUSH0 DUP3 DUP3 SHL SWAP1 POP SWAP3 SWAP2 POP POP JUMP JUMPDEST PUSH0 PUSH1 0x8 DUP4 MUL PUSH2 0x2C4 PUSH32 0xFFFFFFFFFFFFFFFFFFFFFFFFFFFFFFFFFFFFFFFFFFFFFFFFFFFFFFFFFFFFFFFF DUP3 PUSH2 0x289 JUMP JUMPDEST PUSH2 0x2CE DUP7 DUP4 PUSH2 0x289 JUMP JUMPDEST SWAP6 POP DUP1 NOT DUP5 AND SWAP4 POP DUP1 DUP7 AND DUP5 OR SWAP3 POP POP POP SWAP4 SWAP3 POP POP POP JUMP JUMPDEST PUSH0 DUP2 SWAP1 POP SWAP2 SWAP1 POP JUMP JUMPDEST PUSH0 DUP2 SWAP1 POP SWAP2 SWAP1 POP JUMP JUMPDEST PUSH0 PUSH2 0x312 PUSH2 0x30D PUSH2 0x308 DUP5 PUSH2 0x2E6 JUMP JUMPDEST PUSH2 0x2EF JUMP JUMPDEST PUSH2 0x2E6 JUMP JUMPDEST SWAP1 POP SWAP2 SWAP1 POP JUMP JUMPDEST PUSH0 DUP2 SWAP1 POP SWAP2 SWAP1 POP JUMP JUMPDEST PUSH2 0x32B DUP4 PUSH2 0x2F8 JUMP JUMPDEST PUSH2 0x33F PUSH2 0x337 DUP3 PUSH2 0x319 JUMP JUMPDEST DUP5 DUP5 SLOAD PUSH2 0x295 JUMP JUMPDEST DUP3 SSTORE POP POP POP POP JUMP JUMPDEST PUSH0 PUSH0 SWAP1 POP SWAP1 JUMP JUMPDEST PUSH2 0x356 PUSH2 0x347 JUMP JUMPDEST PUSH2 0x361 DUP2 DUP5 DUP5 PUSH2 0x322 JUMP JUMPDEST POP POP POP JUMP JUMPDEST JUMPDEST DUP2 DUP2 LT ISZERO PUSH2 0x384 JUMPI PUSH2 0x379 PUSH0 DUP3 PUSH2 0x34E JUMP JUMPDEST PUSH1 0x1 DUP2 ADD SWAP1 POP PUSH2 0x367 JUMP JUMPDEST POP POP JUMP JUMPDEST PUSH1 0x1F DUP3 GT ISZERO PUSH2 0x3C9 JUMPI PUSH2 0x39A DUP2 PUSH2 0x268 JUMP JUMPDEST PUSH2 0x3A3 DUP5 PUSH2 0x27A JUMP JUMPDEST DUP2 ADD PUSH1 0x20 DUP6 LT ISZERO PUSH2 0x3B2 JUMPI DUP2 SWAP1 POP JUMPDEST PUSH2 0x3C6 PUSH2 0x3BE DUP6 PUSH2 0x27A JUMP JUMPDEST DUP4 ADD DUP3 PUSH2 0x366 JUMP JUMPDEST POP POP JUMPDEST POP POP POP JUMP JUMPDEST PUSH0 DUP3 DUP3 SHR SWAP1 POP SWAP3 SWAP2 POP POP JUMP JUMPDEST PUSH0 PUSH2 0x3E9 PUSH0 NOT DUP5 PUSH1 0x8 MUL PUSH2 0x3CE JUMP JUMPDEST NOT DUP1 DUP4 AND SWAP2 POP POP SWAP3 SWAP2 POP POP JUMP JUMPDEST PUSH0 PUSH2 0x401 DUP4 DUP4 PUSH2 0x3DA JUMP JUMPDEST SWAP2 POP DUP3 PUSH1 0x2 MUL DUP3 OR SWAP1 POP SWAP3 SWAP2 POP POP JUMP JUMPDEST PUSH2 0x41A DUP3 PUSH2 0x1D4 JUMP JUMPDEST PUSH8 0xFFFFFFFFFFFFFFFF DUP2 GT ISZERO PUSH2 0x433 JUMPI PUSH2 0x432 PUSH2 0x1DE JUMP JUMPDEST JUMPDEST PUSH2 0x43D DUP3 SLOAD PUSH2 0x238 JUMP JUMPDEST PUSH2 0x448 DUP3 DUP3 DUP6 PUSH2 0x388 JUMP JUMPDEST PUSH0 PUSH1 0x20 SWAP1 POP PUSH1 0x1F DUP4 GT PUSH1 0x1 DUP2 EQ PUSH2 0x479 JUMPI PUSH0 DUP5 ISZERO PUSH2 0x467 JUMPI DUP3 DUP8 ADD MLOAD SWAP1 POP JUMPDEST PUSH2 0x471 DUP6 DUP3 PUSH2 0x3F6 JUMP JUMPDEST DUP7 SSTORE POP PUSH2 0x4D8 JUMP JUMPDEST PUSH1 0x1F NOT DUP5 AND PUSH2 0x487 DUP7 PUSH2 0x268 JUMP JUMPDEST PUSH0 JUMPDEST DUP3 DUP2 LT ISZERO PUSH2 0x4AE JUMPI DUP5 DUP10 ADD MLOAD DUP3 SSTORE PUSH1 0x1 DUP3 ADD SWAP2 POP PUSH1 0x20 DUP6 ADD SWAP5 POP PUSH1 0x20 DUP2 ADD SWAP1 POP PUSH2 0x489 JUMP JUMPDEST DUP7 DUP4 LT ISZERO PUSH2 0x4CB JUMPI DUP5 DUP10 ADD MLOAD PUSH2 0x4C7 PUSH1 0x1F DUP10 AND DUP3 PUSH2 0x3DA JUMP JUMPDEST DUP4 SSTORE POP JUMPDEST PUSH1 0x1 PUSH1 0x2 DUP9 MUL ADD DUP9 SSTORE POP POP POP JUMPDEST POP POP POP POP POP POP JUMP JUMPDEST PUSH2 0x4E9 DUP2 PUSH2 0x2E6 JUMP JUMPDEST DUP3 MSTORE POP POP JUMP JUMPDEST PUSH0 PUSH1 0x20 DUP3 ADD SWAP1 POP PUSH2 0x502 PUSH0 DUP4 ADD DUP5 PUSH2 0x4E0 JUMP JUMPDEST SWAP3 SWAP2 POP POP JUMP JUMPDEST PUSH2 0x11C2 DUP1 PUSH2 0x515 PUSH0 CODECOPY PUSH0 RETURN INVALID PUSH1 0x80 PUSH1 0x40 MSTORE CALLVALUE DUP1 ISZERO PUSH2 0xF JUMPI PUSH0 PUSH0 REVERT JUMPDEST POP PUSH1 0x4 CALLDATASIZE LT PUSH2 0x109 JUMPI PUSH0 CALLDATALOAD PUSH1 0xE0 SHR DUP1 PUSH4 0x70A08231 GT PUSH2 0xA0 JUMPI DUP1 PUSH4 0xB2BDFA7B GT PUSH2 0x6F JUMPI DUP1 PUSH4 0xB2BDFA7B EQ PUSH2 0x2CD JUMPI DUP1 PUSH4 0xB5931F7C EQ PUSH2 0x2EB JUMPI DUP1 PUSH4 0xD05C78DA EQ PUSH2 0x31B JUMPI DUP1 PUSH4 0xDD62ED3E EQ PUSH2 0x34B JUMPI DUP1 PUSH4 0xE6CB9013 EQ PUSH2 0x37B JUMPI PUSH2 0x109 JUMP JUMPDEST DUP1 PUSH4 0x70A08231 EQ PUSH2 0x21F JUMPI DUP1 PUSH4 0x95D89B41 EQ PUSH2 0x24F JUMPI DUP1 PUSH4 0xA293D1E8 EQ PUSH2 0x26D JUMPI DUP1 PUSH4 0xA9059CBB EQ PUSH2 0x29D JUMPI PUSH2 0x109 JUMP JUMPDEST DUP1 PUSH4 0x23B872DD GT PUSH2 0xDC JUMPI DUP1 PUSH4 0x23B872DD EQ PUSH2 0x195 JUMPI DUP1 PUSH4 0x313CE567 EQ PUSH2 0x1C5 JUMPI DUP1 PUSH4 0x3EAAF86B EQ PUSH2 0x1E3 JUMPI DUP1 PUSH4 0x5ED254CE EQ PUSH2 0x201 JUMPI PUSH2 0x109 JUMP JUMPDEST DUP1 PUSH4 0x6FDDE03 EQ PUSH2 0x10D JUMPI DUP1 PUSH4 0x95EA7B3 EQ PUSH2 0x12B JUMPI DUP1 PUSH4 0x13AF4035 EQ PUSH2 0x15B JUMPI DUP1 PUSH4 0x18160DDD EQ PUSH2 0x177 JUMPI JUMPDEST PUSH0 PUSH0 REVERT JUMPDEST PUSH2 0x115 PUSH2 0x3AB JUMP JUMPDEST PUSH1 0x40 MLOAD PUSH2 0x122 SWAP2 SWAP1 PUSH2 0xD39 JUMP JUMPDEST PUSH1 0x40 MLOAD DUP1 SWAP2 SUB SWAP1 RETURN JUMPDEST PUSH2 0x145 PUSH1 0x4 DUP1 CALLDATASIZE SUB DUP2 ADD SWAP1 PUSH2 0x140 SWAP2 SWAP1 PUSH2 0xDEA JUMP JUMPDEST PUSH2 0x436 JUMP JUMPDEST PUSH1 0x40 MLOAD PUSH2 0x152 SWAP2 SWAP1 PUSH2 0xE42 JUMP JUMPDEST PUSH1 0x40 MLOAD DUP1 SWAP2 SUB SWAP1 RETURN JUMPDEST PUSH2 0x175 PUSH1 0x4 DUP1 CALLDATASIZE SUB DUP2 ADD SWAP1 PUSH2 0x170 SWAP2 SWAP1 PUSH2 0xE5B JUMP JUMPDEST PUSH2 0x523 JUMP JUMPDEST STOP JUMPDEST PUSH2 0x17F PUSH2 0x566 JUMP JUMPDEST PUSH1 0x40 MLOAD PUSH2 0x18C SWAP2 SWAP1 PUSH2 0xE95 JUMP JUMPDEST PUSH1 0x40 MLOAD DUP1 SWAP2 SUB SWAP1 RETURN JUMPDEST PUSH2 0x1AF PUSH1 0x4 DUP1 CALLDATASIZE SUB DUP2 ADD SWAP1 PUSH2 0x1AA SWAP2 SWAP1 PUSH2 0xEAE JUMP JUMPDEST PUSH2 0x5B7 JUMP JUMPDEST PUSH1 0x40 MLOAD PUSH2 0x1BC SWAP2 SWAP1 PUSH2 0xE42 JUMP JUMPDEST PUSH1 0x40 MLOAD DUP1 SWAP2 SUB SWAP1 RETURN JUMPDEST PUSH2 0x1CD PUSH2 0x732 JUMP JUMPDEST PUSH1 0x40 MLOAD PUSH2 0x1DA SWAP2 SWAP1 PUSH2 0xF19 JUMP JUMPDEST PUSH1 0x40 MLOAD DUP1 SWAP2 SUB SWAP1 RETURN JUMPDEST PUSH2 0x1EB PUSH2 0x744 JUMP JUMPDEST PUSH1 0x40 MLOAD PUSH2 0x1F8 SWAP2 SWAP1 PUSH2 0xE95 JUMP JUMPDEST PUSH1 0x40 MLOAD DUP1 SWAP2 SUB SWAP1 RETURN JUMPDEST PUSH2 0x209 PUSH2 0x74A JUMP JUMPDEST PUSH1 0x40 MLOAD PUSH2 0x216 SWAP2 SWAP1 PUSH2 0xF19 JUMP JUMPDEST PUSH1 0x40 MLOAD DUP1 SWAP2 SUB SWAP1 RETURN JUMPDEST PUSH2 0x239 PUSH1 0x4 DUP1 CALLDATASIZE SUB DUP2 ADD SWAP1 PUSH2 0x234 SWAP2 SWAP1 PUSH2 0xE5B JUMP JUMPDEST PUSH2 0x75D JUMP JUMPDEST PUSH1 0x40 MLOAD PUSH2 0x246 SWAP2 SWAP1 PUSH2 0xE95 JUMP JUMPDEST PUSH1 0x40 MLOAD DUP1 SWAP2 SUB SWAP1 RETURN JUMPDEST PUSH2 0x257 PUSH2 0x7A3 JUMP JUMPDEST PUSH1 0x40 MLOAD PUSH2 0x264 SWAP2 SWAP1 PUSH2 0xD39 JUMP JUMPDEST PUSH1 0x40 MLOAD DUP1 SWAP2 SUB SWAP1 RETURN JUMPDEST PUSH2 0x287 PUSH1 0x4 DUP1 CALLDATASIZE SUB DUP2 ADD SWAP1 PUSH2 0x282 SWAP2 SWAP1 PUSH2 0xF32 JUMP JUMPDEST PUSH2 0x82F JUMP JUMPDEST PUSH1 0x40 MLOAD PUSH2 0x294 SWAP2 SWAP1 PUSH2 0xE95 JUMP JUMPDEST PUSH1 0x40 MLOAD DUP1 SWAP2 SUB SWAP1 RETURN JUMPDEST PUSH2 0x2B7 PUSH1 0x4 DUP1 CALLDATASIZE SUB DUP2 ADD SWAP1 PUSH2 0x2B2 SWAP2 SWAP1 PUSH2 0xDEA JUMP JUMPDEST PUSH2 0x850 JUMP JUMPDEST PUSH1 0x40 MLOAD PUSH2 0x2C4 SWAP2 SWAP1 PUSH2 0xE42 JUMP JUMPDEST PUSH1 0x40 MLOAD DUP1 SWAP2 SUB SWAP1 RETURN JUMPDEST PUSH2 0x2D5 PUSH2 0x8CC JUMP JUMPDEST PUSH1 0x40 MLOAD PUSH2 0x2E2 SWAP2 SWAP1 PUSH2 0xF7F JUMP JUMPDEST PUSH1 0x40 MLOAD DUP1 SWAP2 SUB SWAP1 RETURN JUMPDEST PUSH2 0x305 PUSH1 0x4 DUP1 CALLDATASIZE SUB DUP2 ADD SWAP1 PUSH2 0x300 SWAP2 SWAP1 PUSH2 0xF32 JUMP JUMPDEST PUSH2 0x8F1 JUMP JUMPDEST PUSH1 0x40 MLOAD PUSH2 0x312 SWAP2 SWAP1 PUSH2 0xE95 JUMP JUMPDEST PUSH1 0x40 MLOAD DUP1 SWAP2 SUB SWAP1 RETURN JUMPDEST PUSH2 0x335 PUSH1 0x4 DUP1 CALLDATASIZE SUB DUP2 ADD SWAP1 PUSH2 0x330 SWAP2 SWAP1 PUSH2 0xF32 JUMP JUMPDEST PUSH2 0x911 JUMP JUMPDEST PUSH1 0x40 MLOAD PUSH2 0x342 SWAP2 SWAP1 PUSH2 0xE95 JUMP JUMPDEST PUSH1 0x40 MLOAD DUP1 SWAP2 SUB SWAP1 RETURN JUMPDEST PUSH2 0x365 PUSH1 0x4 DUP1 CALLDATASIZE SUB DUP2 ADD SWAP1 PUSH2 0x360 SWAP2 SWAP1 PUSH2 0xF98 JUMP JUMPDEST PUSH2 0x946 JUMP JUMPDEST PUSH1 0x40 MLOAD PUSH2 0x372 SWAP2 SWAP1 PUSH2 0xE95 JUMP JUMPDEST PUSH1 0x40 MLOAD DUP1 SWAP2 SUB SWAP1 RETURN JUMPDEST PUSH2 0x395 PUSH1 0x4 DUP1 CALLDATASIZE SUB DUP2 ADD SWAP1 PUSH2 0x390 SWAP2 SWAP1 PUSH2 0xF32 JUMP JUMPDEST PUSH2 0x9C8 JUMP JUMPDEST PUSH1 0x40 MLOAD PUSH2 0x3A2 SWAP2 SWAP1 PUSH2 0xE95 JUMP JUMPDEST PUSH1 0x40 MLOAD DUP1 SWAP2 SUB SWAP1 RETURN JUMPDEST PUSH0 DUP1 SLOAD PUSH2 0x3B7 SWAP1 PUSH2 0x1003 JUMP JUMPDEST DUP1 PUSH1 0x1F ADD PUSH1 0x20 DUP1 SWAP2 DIV MUL PUSH1 0x20 ADD PUSH1 0x40 MLOAD SWAP1 DUP2 ADD PUSH1 0x40 MSTORE DUP1 SWAP3 SWAP2 SWAP1 DUP2 DUP2 MSTORE PUSH1 0x20 ADD DUP3 DUP1 SLOAD PUSH2 0x3E3 SWAP1 PUSH2 0x1003 JUMP JUMPDEST DUP1 ISZERO PUSH2 0x42E JUMPI DUP1 PUSH1 0x1F LT PUSH2 0x405 JUMPI PUSH2 0x100 DUP1 DUP4 SLOAD DIV MUL DUP4 MSTORE SWAP2 PUSH1 0x20 ADD SWAP2 PUSH2 0x42E JUMP JUMPDEST DUP3 ADD SWAP2 SWAP1 PUSH0 MSTORE PUSH1 0x20 PUSH0 KECCAK256 SWAP1 JUMPDEST DUP2 SLOAD DUP2 MSTORE SWAP1 PUSH1 0x1 ADD SWAP1 PUSH1 0x20 ADD DUP1 DUP4 GT PUSH2 0x411 JUMPI DUP3 SWAP1 SUB PUSH1 0x1F AND DUP3 ADD SWAP2 JUMPDEST POP POP POP POP POP DUP2 JUMP JUMPDEST PUSH0 DUP2 PUSH1 0x6 PUSH0 CALLER PUSH20 0xFFFFFFFFFFFFFFFFFFFFFFFFFFFFFFFFFFFFFFFF AND PUSH20 0xFFFFFFFFFFFFFFFFFFFFFFFFFFFFFFFFFFFFFFFF AND DUP2 MSTORE PUSH1 0x20 ADD SWAP1 DUP2 MSTORE PUSH1 0x20 ADD PUSH0 KECCAK256 PUSH0 DUP6 PUSH20 0xFFFFFFFFFFFFFFFFFFFFFFFFFFFFFFFFFFFFFFFF AND PUSH20 0xFFFFFFFFFFFFFFFFFFFFFFFFFFFFFFFFFFFFFFFF AND DUP2 MSTORE PUSH1 0x20 ADD SWAP1 DUP2 MSTORE PUSH1 0x20 ADD PUSH0 KECCAK256 DUP2 SWAP1 SSTORE POP DUP3 PUSH20 0xFFFFFFFFFFFFFFFFFFFFFFFFFFFFFFFFFFFFFFFF AND CALLER PUSH20 0xFFFFFFFFFFFFFFFFFFFFFFFFFFFFFFFFFFFFFFFF AND PUSH32 0x8C5BE1E5EBEC7D5BD14F71427D1E84F3DD0314C0F7B2291E5B200AC8C7C3B925 DUP5 PUSH1 0x40 MLOAD PUSH2 0x511 SWAP2 SWAP1 PUSH2 0xE95 JUMP JUMPDEST PUSH1 0x40 MLOAD DUP1 SWAP2 SUB SWAP1 LOG3 PUSH1 0x1 SWAP1 POP SWAP3 SWAP2 POP POP JUMP JUMPDEST DUP1 PUSH1 0x4 PUSH0 PUSH2 0x100 EXP DUP2 SLOAD DUP2 PUSH20 0xFFFFFFFFFFFFFFFFFFFFFFFFFFFFFFFFFFFFFFFF MUL NOT AND SWAP1 DUP4 PUSH20 0xFFFFFFFFFFFFFFFFFFFFFFFFFFFFFFFFFFFFFFFF AND MUL OR SWAP1 SSTORE POP POP JUMP JUMPDEST PUSH0 PUSH1 0x5 PUSH0 PUSH0 PUSH20 0xFFFFFFFFFFFFFFFFFFFFFFFFFFFFFFFFFFFFFFFF AND PUSH20 0xFFFFFFFFFFFFFFFFFFFFFFFFFFFFFFFFFFFFFFFF AND DUP2 MSTORE PUSH1 0x20 ADD SWAP1 DUP2 MSTORE PUSH1 0x20 ADD PUSH0 KECCAK256 SLOAD PUSH1 0x3 SLOAD PUSH2 0x5B2 SWAP2 SWAP1 PUSH2 0x1060 JUMP JUMPDEST SWAP1 POP SWAP1 JUMP JUMPDEST PUSH0 PUSH2 0x63A PUSH1 0x6 PUSH0 DUP7 PUSH20 0xFFFFFFFFFFFFFFFFFFFFFFFFFFFFFFFFFFFFFFFF AND PUSH20 0xFFFFFFFFFFFFFFFFFFFFFFFFFFFFFFFFFFFFFFFF AND DUP2 MSTORE PUSH1 0x20 ADD SWAP1 DUP2 MSTORE PUSH1 0x20 ADD PUSH0 KECCAK256 PUSH0 CALLER PUSH20 0xFFFFFFFFFFFFFFFFFFFFFFFFFFFFFFFFFFFFFFFF AND PUSH20 0xFFFFFFFFFFFFFFFFFFFFFFFFFFFFFFFFFFFFFFFF AND DUP2 MSTORE PUSH1 0x20 ADD SWAP1 DUP2 MSTORE PUSH1 0x20 ADD PUSH0 KECCAK256 SLOAD DUP4 PUSH2 0x82F JUMP JUMPDEST PUSH1 0x6 PUSH0 DUP7 PUSH20 0xFFFFFFFFFFFFFFFFFFFFFFFFFFFFFFFFFFFFFFFF AND PUSH20 0xFFFFFFFFFFFFFFFFFFFFFFFFFFFFFFFFFFFFFFFF AND DUP2 MSTORE PUSH1 0x20 ADD SWAP1 DUP2 MSTORE PUSH1 0x20 ADD PUSH0 KECCAK256 PUSH0 CALLER PUSH20 0xFFFFFFFFFFFFFFFFFFFFFFFFFFFFFFFFFFFFFFFF AND PUSH20 0xFFFFFFFFFFFFFFFFFFFFFFFFFFFFFFFFFFFFFFFF AND DUP2 MSTORE PUSH1 0x20 ADD SWAP1 DUP2 MSTORE PUSH1 0x20 ADD PUSH0 KECCAK256 DUP2 SWAP1 SSTORE POP PUSH2 0x6C1 DUP5 DUP5 DUP5 PUSH2 0x9E9 JUMP JUMPDEST POP DUP3 PUSH20 0xFFFFFFFFFFFFFFFFFFFFFFFFFFFFFFFFFFFFFFFF AND DUP5 PUSH20 0xFFFFFFFFFFFFFFFFFFFFFFFFFFFFFFFFFFFFFFFF AND PUSH32 0xDDF252AD1BE2C89B69C2B068FC378DAA952BA7F163C4A11628F55A4DF523B3EF DUP5 PUSH1 0x40 MLOAD PUSH2 0x71F SWAP2 SWAP1 PUSH2 0xE95 JUMP JUMPDEST PUSH1 0x40 MLOAD DUP1 SWAP2 SUB SWAP1 LOG3 PUSH1 0x1 SWAP1 POP SWAP4 SWAP3 POP POP POP JUMP JUMPDEST PUSH1 0x2 PUSH0 SWAP1 SLOAD SWAP1 PUSH2 0x100 EXP SWAP1 DIV PUSH1 0xFF AND DUP2 JUMP JUMPDEST PUSH1 0x3 SLOAD DUP2 JUMP JUMPDEST PUSH1 0x2 PUSH1 0x1 SWAP1 SLOAD SWAP1 PUSH2 0x100 EXP SWAP1 DIV PUSH1 0xFF AND DUP2 JUMP JUMPDEST PUSH0 PUSH1 0x5 PUSH0 DUP4 PUSH20 0xFFFFFFFFFFFFFFFFFFFFFFFFFFFFFFFFFFFFFFFF AND PUSH20 0xFFFFFFFFFFFFFFFFFFFFFFFFFFFFFFFFFFFFFFFF AND DUP2 MSTORE PUSH1 0x20 ADD SWAP1 DUP2 MSTORE PUSH1 0x20 ADD PUSH0 KECCAK256 SLOAD SWAP1 POP SWAP2 SWAP1 POP JUMP JUMPDEST PUSH1 0x1 DUP1 SLOAD PUSH2 0x7B0 SWAP1 PUSH2 0x1003 JUMP JUMPDEST DUP1 PUSH1 0x1F ADD PUSH1 0x20 DUP1 SWAP2 DIV MUL PUSH1 0x20 ADD PUSH1 0x40 MLOAD SWAP1 DUP2 ADD PUSH1 0x40 MSTORE DUP1 SWAP3 SWAP2 SWAP1 DUP2 DUP2 MSTORE PUSH1 0x20 ADD DUP3 DUP1 SLOAD PUSH2 0x7DC SWAP1 PUSH2 0x1003 JUMP JUMPDEST DUP1 ISZERO PUSH2 0x827 JUMPI DUP1 PUSH1 0x1F LT PUSH2 0x7FE JUMPI PUSH2 0x100 DUP1 DUP4 SLOAD DIV MUL DUP4 MSTORE SWAP2 PUSH1 0x20 ADD SWAP2 PUSH2 0x827 JUMP JUMPDEST DUP3 ADD SWAP2 SWAP1 PUSH0 MSTORE PUSH1 0x20 PUSH0 KECCAK256 SWAP1 JUMPDEST DUP2 SLOAD DUP2 MSTORE SWAP1 PUSH1 0x1 ADD SWAP1 PUSH1 0x20 ADD DUP1 DUP4 GT PUSH2 0x80A JUMPI DUP3 SWAP1 SUB PUSH1 0x1F AND DUP3 ADD SWAP2 JUMPDEST POP POP POP POP POP DUP2 JUMP JUMPDEST PUSH0 DUP3 DUP3 GT ISZERO PUSH2 0x83C JUMPI PUSH0 PUSH0 REVERT JUMPDEST DUP2 DUP4 PUSH2 0x848 SWAP2 SWAP1 PUSH2 0x1060 JUMP JUMPDEST SWAP1 POP SWAP3 SWAP2 POP POP JUMP JUMPDEST PUSH0 PUSH2 0x85C CALLER DUP5 DUP5 PUSH2 0x9E9 JUMP JUMPDEST POP DUP3 PUSH20 0xFFFFFFFFFFFFFFFFFFFFFFFFFFFFFFFFFFFFFFFF AND CALLER PUSH20 0xFFFFFFFFFFFFFFFFFFFFFFFFFFFFFFFFFFFFFFFF AND PUSH32 0xDDF252AD1BE2C89B69C2B068FC378DAA952BA7F163C4A11628F55A4DF523B3EF DUP5 PUSH1 0x40 MLOAD PUSH2 0x8BA SWAP2 SWAP1 PUSH2 0xE95 JUMP JUMPDEST PUSH1 0x40 MLOAD DUP1 SWAP2 SUB SWAP1 LOG3 PUSH1 0x1 SWAP1 POP SWAP3 SWAP2 POP POP JUMP JUMPDEST PUSH1 0x4 PUSH0 SWAP1 SLOAD SWAP1 PUSH2 0x100 EXP SWAP1 DIV PUSH20 0xFFFFFFFFFFFFFFFFFFFFFFFFFFFFFFFFFFFFFFFF AND DUP2 JUMP JUMPDEST PUSH0 PUSH0 DUP3 GT PUSH2 0x8FD JUMPI PUSH0 PUSH0 REVERT JUMPDEST DUP2 DUP4 PUSH2 0x909 SWAP2 SWAP1 PUSH2 0x10C0 JUMP JUMPDEST SWAP1 POP SWAP3 SWAP2 POP POP JUMP JUMPDEST PUSH0 DUP2 DUP4 PUSH2 0x91E SWAP2 SWAP1 PUSH2 0x10F0 JUMP JUMPDEST SWAP1 POP PUSH0 DUP4 EQ DUP1 PUSH2 0x938 JUMPI POP DUP2 DUP4 DUP3 PUSH2 0x936 SWAP2 SWAP1 PUSH2 0x10C0 JUMP JUMPDEST EQ JUMPDEST PUSH2 0x940 JUMPI PUSH0 PUSH0 REVERT JUMPDEST SWAP3 SWAP2 POP POP JUMP JUMPDEST PUSH0 PUSH1 0x6 PUSH0 DUP5 PUSH20 0xFFFFFFFFFFFFFFFFFFFFFFFFFFFFFFFFFFFFFFFF AND PUSH20 0xFFFFFFFFFFFFFFFFFFFFFFFFFFFFFFFFFFFFFFFF AND DUP2 MSTORE PUSH1 0x20 ADD SWAP1 DUP2 MSTORE PUSH1 0x20 ADD PUSH0 KECCAK256 PUSH0 DUP4 PUSH20 0xFFFFFFFFFFFFFFFFFFFFFFFFFFFFFFFFFFFFFFFF AND PUSH20 0xFFFFFFFFFFFFFFFFFFFFFFFFFFFFFFFFFFFFFFFF AND DUP2 MSTORE PUSH1 0x20 ADD SWAP1 DUP2 MSTORE PUSH1 0x20 ADD PUSH0 KECCAK256 SLOAD SWAP1 POP SWAP3 SWAP2 POP POP JUMP JUMPDEST PUSH0 DUP2 DUP4 PUSH2 0x9D5 SWAP2 SWAP1 PUSH2 0x1131 JUMP JUMPDEST SWAP1 POP DUP3 DUP2 LT ISZERO PUSH2 0x9E3 JUMPI PUSH0 PUSH0 REVERT JUMPDEST SWAP3 SWAP2 POP POP JUMP JUMPDEST PUSH0 PUSH1 0x5 PUSH1 0x2 PUSH1 0x1 SWAP1 SLOAD SWAP1 PUSH2 0x100 EXP SWAP1 DIV PUSH1 0xFF AND PUSH1 0xFF AND LT PUSH2 0xA08 JUMPI PUSH0 PUSH0 REVERT JUMPDEST PUSH1 0x4 PUSH0 SWAP1 SLOAD SWAP1 PUSH2 0x100 EXP SWAP1 DIV PUSH20 0xFFFFFFFFFFFFFFFFFFFFFFFFFFFFFFFFFFFFFFFF AND PUSH20 0xFFFFFFFFFFFFFFFFFFFFFFFFFFFFFFFFFFFFFFFF AND CALLER PUSH20 0xFFFFFFFFFFFFFFFFFFFFFFFFFFFFFFFFFFFFFFFF AND SUB PUSH2 0xBAD JUMPI PUSH1 0x2 PUSH1 0x1 DUP2 DUP2 SWAP1 SLOAD SWAP1 PUSH2 0x100 EXP SWAP1 DIV PUSH1 0xFF AND DUP1 SWAP3 SWAP2 SWAP1 PUSH2 0xA7B SWAP1 PUSH2 0x1164 JUMP JUMPDEST SWAP2 SWAP1 PUSH2 0x100 EXP DUP2 SLOAD DUP2 PUSH1 0xFF MUL NOT AND SWAP1 DUP4 PUSH1 0xFF AND MUL OR SWAP1 SSTORE POP POP PUSH2 0xADB PUSH1 0x5 PUSH0 DUP7 PUSH20 0xFFFFFFFFFFFFFFFFFFFFFFFFFFFFFFFFFFFFFFFF AND PUSH20 0xFFFFFFFFFFFFFFFFFFFFFFFFFFFFFFFFFFFFFFFF AND DUP2 MSTORE PUSH1 0x20 ADD SWAP1 DUP2 MSTORE PUSH1 0x20 ADD PUSH0 KECCAK256 SLOAD DUP4 PUSH2 0x82F JUMP JUMPDEST PUSH1 0x5 PUSH0 DUP7 PUSH20 0xFFFFFFFFFFFFFFFFFFFFFFFFFFFFFFFFFFFFFFFF AND PUSH20 0xFFFFFFFFFFFFFFFFFFFFFFFFFFFFFFFFFFFFFFFF AND DUP2 MSTORE PUSH1 0x20 ADD SWAP1 DUP2 MSTORE PUSH1 0x20 ADD PUSH0 KECCAK256 DUP2 SWAP1 SSTORE POP PUSH2 0xB63 PUSH1 0x5 PUSH0 DUP6 PUSH20 0xFFFFFFFFFFFFFFFFFFFFFFFFFFFFFFFFFFFFFFFF AND PUSH20 0xFFFFFFFFFFFFFFFFFFFFFFFFFFFFFFFFFFFFFFFF AND DUP2 MSTORE PUSH1 0x20 ADD SWAP1 DUP2 MSTORE PUSH1 0x20 ADD PUSH0 KECCAK256 SLOAD DUP4 PUSH2 0x9C8 JUMP JUMPDEST PUSH1 0x5 PUSH0 DUP6 PUSH20 0xFFFFFFFFFFFFFFFFFFFFFFFFFFFFFFFFFFFFFFFF AND PUSH20 0xFFFFFFFFFFFFFFFFFFFFFFFFFFFFFFFFFFFFFFFF AND DUP2 MSTORE PUSH1 0x20 ADD SWAP1 DUP2 MSTORE PUSH1 0x20 ADD PUSH0 KECCAK256 DUP2 SWAP1 SSTORE POP PUSH1 0x1 SWAP1 POP PUSH2 0xCC2 JUMP JUMPDEST PUSH2 0xBF4 PUSH1 0x5 PUSH0 DUP7 PUSH20 0xFFFFFFFFFFFFFFFFFFFFFFFFFFFFFFFFFFFFFFFF AND PUSH20 0xFFFFFFFFFFFFFFFFFFFFFFFFFFFFFFFFFFFFFFFF AND DUP2 MSTORE PUSH1 0x20 ADD SWAP1 DUP2 MSTORE PUSH1 0x20 ADD PUSH0 KECCAK256 SLOAD DUP4 PUSH2 0x82F JUMP JUMPDEST PUSH1 0x5 PUSH0 DUP7 PUSH20 0xFFFFFFFFFFFFFFFFFFFFFFFFFFFFFFFFFFFFFFFF AND PUSH20 0xFFFFFFFFFFFFFFFFFFFFFFFFFFFFFFFFFFFFFFFF AND DUP2 MSTORE PUSH1 0x20 ADD SWAP1 DUP2 MSTORE PUSH1 0x20 ADD PUSH0 KECCAK256 DUP2 SWAP1 SSTORE POP PUSH2 0xC7C PUSH1 0x5 PUSH0 DUP6 PUSH20 0xFFFFFFFFFFFFFFFFFFFFFFFFFFFFFFFFFFFFFFFF AND PUSH20 0xFFFFFFFFFFFFFFFFFFFFFFFFFFFFFFFFFFFFFFFF AND DUP2 MSTORE PUSH1 0x20 ADD SWAP1 DUP2 MSTORE PUSH1 0x20 ADD PUSH0 KECCAK256 SLOAD DUP4 PUSH2 0x9C8 JUMP JUMPDEST PUSH1 0x5 PUSH0 DUP6 PUSH20 0xFFFFFFFFFFFFFFFFFFFFFFFFFFFFFFFFFFFFFFFF AND PUSH20 0xFFFFFFFFFFFFFFFFFFFFFFFFFFFFFFFFFFFFFFFF AND DUP2 MSTORE PUSH1 0x20 ADD SWAP1 DUP2 MSTORE PUSH1 0x20 ADD PUSH0 KECCAK256 DUP2 SWAP1 SSTORE POP PUSH1 0x1 SWAP1 POP JUMPDEST SWAP4 SWAP3 POP POP POP JUMP JUMPDEST PUSH0 DUP2 MLOAD SWAP1 POP SWAP2 SWAP1 POP JUMP JUMPDEST PUSH0 DUP3 DUP3 MSTORE PUSH1 0x20 DUP3 ADD SWAP1 POP SWAP3 SWAP2 POP POP JUMP JUMPDEST DUP3 DUP2 DUP4 MCOPY PUSH0 DUP4 DUP4 ADD MSTORE POP POP POP JUMP JUMPDEST PUSH0 PUSH1 0x1F NOT PUSH1 0x1F DUP4 ADD AND SWAP1 POP SWAP2 SWAP1 POP JUMP JUMPDEST PUSH0 PUSH2 0xD0B DUP3 PUSH2 0xCC9 JUMP JUMPDEST PUSH2 0xD15 DUP2 DUP6 PUSH2 0xCD3 JUMP JUMPDEST SWAP4 POP PUSH2 0xD25 DUP2 DUP6 PUSH1 0x20 DUP7 ADD PUSH2 0xCE3 JUMP JUMPDEST PUSH2 0xD2E DUP2 PUSH2 0xCF1 JUMP JUMPDEST DUP5 ADD SWAP2 POP POP SWAP3 SWAP2 POP POP JUMP JUMPDEST PUSH0 PUSH1 0x20 DUP3 ADD SWAP1 POP DUP2 DUP2 SUB PUSH0 DUP4 ADD MSTORE PUSH2 0xD51 DUP2 DUP5 PUSH2 0xD01 JUMP JUMPDEST SWAP1 POP SWAP3 SWAP2 POP POP JUMP JUMPDEST PUSH0 PUSH0 REVERT JUMPDEST PUSH0 PUSH20 0xFFFFFFFFFFFFFFFFFFFFFFFFFFFFFFFFFFFFFFFF DUP3 AND SWAP1 POP SWAP2 SWAP1 POP JUMP JUMPDEST PUSH0 PUSH2 0xD86 DUP3 PUSH2 0xD5D JUMP JUMPDEST SWAP1 POP SWAP2 SWAP1 POP JUMP JUMPDEST PUSH2 0xD96 DUP2 PUSH2 0xD7C JUMP JUMPDEST DUP2 EQ PUSH2 0xDA0 JUMPI PUSH0 PUSH0 REVERT JUMPDEST POP JUMP JUMPDEST PUSH0 DUP2 CALLDATALOAD SWAP1 POP PUSH2 0xDB1 DUP2 PUSH2 0xD8D JUMP JUMPDEST SWAP3 SWAP2 POP POP JUMP JUMPDEST PUSH0 DUP2 SWAP1 POP SWAP2 SWAP1 POP JUMP JUMPDEST PUSH2 0xDC9 DUP2 PUSH2 0xDB7 JUMP JUMPDEST DUP2 EQ PUSH2 0xDD3 JUMPI PUSH0 PUSH0 REVERT JUMPDEST POP JUMP JUMPDEST PUSH0 DUP2 CALLDATALOAD SWAP1 POP PUSH2 0xDE4 DUP2 PUSH2 0xDC0 JUMP JUMPDEST SWAP3 SWAP2 POP POP JUMP JUMPDEST PUSH0 PUSH0 PUSH1 0x40 DUP4 DUP6 SUB SLT ISZERO PUSH2 0xE00 JUMPI PUSH2 0xDFF PUSH2 0xD59 JUMP JUMPDEST JUMPDEST PUSH0 PUSH2 0xE0D DUP6 DUP3 DUP7 ADD PUSH2 0xDA3 JUMP JUMPDEST SWAP3 POP POP PUSH1 0x20 PUSH2 0xE1E DUP6 DUP3 DUP7 ADD PUSH2 0xDD6 JUMP JUMPDEST SWAP2 POP POP SWAP3 POP SWAP3 SWAP1 POP JUMP JUMPDEST PUSH0 DUP2 ISZERO ISZERO SWAP1 POP SWAP2 SWAP1 POP JUMP JUMPDEST PUSH2 0xE3C DUP2 PUSH2 0xE28 JUMP JUMPDEST DUP3 MSTORE POP POP JUMP JUMPDEST PUSH0 PUSH1 0x20 DUP3 ADD SWAP1 POP PUSH2 0xE55 PUSH0 DUP4 ADD DUP5 PUSH2 0xE33 JUMP JUMPDEST SWAP3 SWAP2 POP POP JUMP JUMPDEST PUSH0 PUSH1 0x20 DUP3 DUP5 SUB SLT ISZERO PUSH2 0xE70 JUMPI PUSH2 0xE6F PUSH2 0xD59 JUMP JUMPDEST JUMPDEST PUSH0 PUSH2 0xE7D DUP5 DUP3 DUP6 ADD PUSH2 0xDA3 JUMP JUMPDEST SWAP2 POP POP SWAP3 SWAP2 POP POP JUMP JUMPDEST PUSH2 0xE8F DUP2 PUSH2 0xDB7 JUMP JUMPDEST DUP3 MSTORE POP POP JUMP JUMPDEST PUSH0 PUSH1 0x20 DUP3 ADD SWAP1 POP PUSH2 0xEA8 PUSH0 DUP4 ADD DUP5 PUSH2 0xE86 JUMP JUMPDEST SWAP3 SWAP2 POP POP JUMP JUMPDEST PUSH0 PUSH0 PUSH0 PUSH1 0x60 DUP5 DUP7 SUB SLT ISZERO PUSH2 0xEC5 JUMPI PUSH2 0xEC4 PUSH2 0xD59 JUMP JUMPDEST JUMPDEST PUSH0 PUSH2 0xED2 DUP7 DUP3 DUP8 ADD PUSH2 0xDA3 JUMP JUMPDEST SWAP4 POP POP PUSH1 0x20 PUSH2 0xEE3 DUP7 DUP3 DUP8 ADD PUSH2 0xDA3 JUMP JUMPDEST SWAP3 POP POP PUSH1 0x40 PUSH2 0xEF4 DUP7 DUP3 DUP8 ADD PUSH2 0xDD6 JUMP JUMPDEST SWAP2 POP POP SWAP3 POP SWAP3 POP SWAP3 JUMP JUMPDEST PUSH0 PUSH1 0xFF DUP3 AND SWAP1 POP SWAP2 SWAP1 POP JUMP JUMPDEST PUSH2 0xF13 DUP2 PUSH2 0xEFE JUMP JUMPDEST DUP3 MSTORE POP POP JUMP JUMPDEST PUSH0 PUSH1 0x20 DUP3 ADD SWAP1 POP PUSH2 0xF2C PUSH0 DUP4 ADD DUP5 PUSH2 0xF0A JUMP JUMPDEST SWAP3 SWAP2 POP POP JUMP JUMPDEST PUSH0 PUSH0 PUSH1 0x40 DUP4 DUP6 SUB SLT ISZERO PUSH2 0xF48 JUMPI PUSH2 0xF47 PUSH2 0xD59 JUMP JUMPDEST JUMPDEST PUSH0 PUSH2 0xF55 DUP6 DUP3 DUP7 ADD PUSH2 0xDD6 JUMP JUMPDEST SWAP3 POP POP PUSH1 0x20 PUSH2 0xF66 DUP6 DUP3 DUP7 ADD PUSH2 0xDD6 JUMP JUMPDEST SWAP2 POP POP SWAP3 POP SWAP3 SWAP1 POP JUMP JUMPDEST PUSH2 0xF79 DUP2 PUSH2 0xD7C JUMP JUMPDEST DUP3 MSTORE POP POP JUMP JUMPDEST PUSH0 PUSH1 0x20 DUP3 ADD SWAP1 POP PUSH2 0xF92 PUSH0 DUP4 ADD DUP5 PUSH2 0xF70 JUMP JUMPDEST SWAP3 SWAP2 POP POP JUMP JUMPDEST PUSH0 PUSH0 PUSH1 0x40 DUP4 DUP6 SUB SLT ISZERO PUSH2 0xFAE JUMPI PUSH2 0xFAD PUSH2 0xD59 JUMP JUMPDEST JUMPDEST PUSH0 PUSH2 0xFBB DUP6 DUP3 DUP7 ADD PUSH2 0xDA3 JUMP JUMPDEST SWAP3 POP POP PUSH1 0x20 PUSH2 0xFCC DUP6 DUP3 DUP7 ADD PUSH2 0xDA3 JUMP JUMPDEST SWAP2 POP POP SWAP3 POP SWAP3 SWAP1 POP JUMP JUMPDEST PUSH32 0x4E487B7100000000000000000000000000000000000000000000000000000000 PUSH0 MSTORE PUSH1 0x22 PUSH1 0x4 MSTORE PUSH1 0x24 PUSH0 REVERT JUMPDEST PUSH0 PUSH1 0x2 DUP3 DIV SWAP1 POP PUSH1 0x1 DUP3 AND DUP1 PUSH2 0x101A JUMPI PUSH1 0x7F DUP3 AND SWAP2 POP JUMPDEST PUSH1 0x20 DUP3 LT DUP2 SUB PUSH2 0x102D JUMPI PUSH2 0x102C PUSH2 0xFD6 JUMP JUMPDEST JUMPDEST POP SWAP2 SWAP1 POP JUMP JUMPDEST PUSH32 0x4E487B7100000000000000000000000000000000000000000000000000000000 PUSH0 MSTORE PUSH1 0x11 PUSH1 0x4 MSTORE PUSH1 0x24 PUSH0 REVERT JUMPDEST PUSH0 PUSH2 0x106A DUP3 PUSH2 0xDB7 JUMP JUMPDEST SWAP2 POP PUSH2 0x1075 DUP4 PUSH2 0xDB7 JUMP JUMPDEST SWAP3 POP DUP3 DUP3 SUB SWAP1 POP DUP2 DUP2 GT ISZERO PUSH2 0x108D JUMPI PUSH2 0x108C PUSH2 0x1033 JUMP JUMPDEST JUMPDEST SWAP3 SWAP2 POP POP JUMP JUMPDEST PUSH32 0x4E487B7100000000000000000000000000000000000000000000000000000000 PUSH0 MSTORE PUSH1 0x12 PUSH1 0x4 MSTORE PUSH1 0x24 PUSH0 REVERT JUMPDEST PUSH0 PUSH2 0x10CA DUP3 PUSH2 0xDB7 JUMP JUMPDEST SWAP2 POP PUSH2 0x10D5 DUP4 PUSH2 0xDB7 JUMP JUMPDEST SWAP3 POP DUP3 PUSH2 0x10E5 JUMPI PUSH2 0x10E4 PUSH2 0x1093 JUMP JUMPDEST JUMPDEST DUP3 DUP3 DIV SWAP1 POP SWAP3 SWAP2 POP POP JUMP JUMPDEST PUSH0 PUSH2 0x10FA DUP3 PUSH2 0xDB7 JUMP JUMPDEST SWAP2 POP PUSH2 0x1105 DUP4 PUSH2 0xDB7 JUMP JUMPDEST SWAP3 POP DUP3 DUP3 MUL PUSH2 0x1113 DUP2 PUSH2 0xDB7 JUMP JUMPDEST SWAP2 POP DUP3 DUP3 DIV DUP5 EQ DUP4 ISZERO OR PUSH2 0x112A JUMPI PUSH2 0x1129 PUSH2 0x1033 JUMP JUMPDEST JUMPDEST POP SWAP3 SWAP2 POP POP JUMP JUMPDEST PUSH0 PUSH2 0x113B DUP3 PUSH2 0xDB7 JUMP JUMPDEST SWAP2 POP PUSH2 0x1146 DUP4 PUSH2 0xDB7 JUMP JUMPDEST SWAP3 POP DUP3 DUP3 ADD SWAP1 POP DUP1 DUP3 GT ISZERO PUSH2 0x115E JUMPI PUSH2 0x115D PUSH2 0x1033 JUMP JUMPDEST JUMPDEST SWAP3 SWAP2 POP POP JUMP JUMPDEST PUSH0 PUSH2 0x116E DUP3 PUSH2 0xEFE JUMP JUMPDEST SWAP2 POP PUSH1 0xFF DUP3 SUB PUSH2 0x1181 JUMPI PUSH2 0x1180 PUSH2 0x1033 JUMP JUMPDEST JUMPDEST PUSH1 0x1 DUP3 ADD SWAP1 POP SWAP2 SWAP1 POP JUMP INVALID LOG2 PUSH5 0x6970667358 0x22 SLT KECCAK256 DUP5 0xD0 0xC6 0xA6 0xB6 EXP 0xE4 GASPRICE 0xB3 PUSH15 0x6AF8E88346E1EE441E1956F357042B SWAP15 MLOAD 0xCE 0xB7 0xF RETURNDATACOPY 0xF7 PUSH5 0x736F6C6343 STOP ADDMOD SHL STOP CALLER "
				},
				"gasEstimates": {
					"creation": {
						"codeDepositCost": "909200",
						"executionCost": "infinite",
						"totalCost": "infinite"
					},
					"external": {
						"_howManyTimesDoOwnerTriedToTransfer()": "2606",
						"_owner()": "2530",
						"_totalSupply()": "2492",
						"allowance(address,address)": "infinite",
						"approve(address,uint256)": "infinite",
						"balanceOf(address)": "2852",
						"decimals()": "2511",
						"name()": "infinite",
						"safeAdd(uint256,uint256)": "infinite",
						"safeDiv(uint256,uint256)": "infinite",
						"safeMul(uint256,uint256)": "infinite",
						"safeSub(uint256,uint256)": "infinite",
						"setOwner(address)": "24783",
						"symbol()": "infinite",
						"totalSupply()": "infinite",
						"transfer(address,uint256)": "infinite",
						"transferFrom(address,address,uint256)": "infinite"
					},
					"internal": {
						"_transfer(address,address,uint256)": "infinite"
					}
				},
				"methodIdentifiers": {
					"_howManyTimesDoOwnerTriedToTransfer()": "5ed254ce",
					"_owner()": "b2bdfa7b",
					"_totalSupply()": "3eaaf86b",
					"allowance(address,address)": "dd62ed3e",
					"approve(address,uint256)": "095ea7b3",
					"balanceOf(address)": "70a08231",
					"decimals()": "313ce567",
					"name()": "06fdde03",
					"safeAdd(uint256,uint256)": "e6cb9013",
					"safeDiv(uint256,uint256)": "b5931f7c",
					"safeMul(uint256,uint256)": "d05c78da",
					"safeSub(uint256,uint256)": "a293d1e8",
					"setOwner(address)": "13af4035",
					"symbol()": "95d89b41",
					"totalSupply()": "18160ddd",
					"transfer(address,uint256)": "a9059cbb",
					"transferFrom(address,address,uint256)": "23b872dd"
				}
			},
			"storageLayout": {
				"storage": [
					{
						"astId": 170,
						"contract": "staticoin.sol:Staticoin",
						"label": "name",
						"offset": 0,
						"slot": "0",
						"type": "t_string_storage"
					},
					{
						"astId": 173,
						"contract": "staticoin.sol:Staticoin",
						"label": "symbol",
						"offset": 0,
						"slot": "1",
						"type": "t_string_storage"
					},
					{
						"astId": 176,
						"contract": "staticoin.sol:Staticoin",
						"label": "decimals",
						"offset": 0,
						"slot": "2",
						"type": "t_uint8"
					},
					{
						"astId": 178,
						"contract": "staticoin.sol:Staticoin",
						"label": "_howManyTimesDoOwnerTriedToTransfer",
						"offset": 1,
						"slot": "2",
						"type": "t_uint8"
					},
					{
						"astId": 181,
						"contract": "staticoin.sol:Staticoin",
						"label": "_totalSupply",
						"offset": 0,
						"slot": "3",
						"type": "t_uint256"
					},
					{
						"astId": 183,
						"contract": "staticoin.sol:Staticoin",
						"label": "_owner",
						"offset": 0,
						"slot": "4",
						"type": "t_address"
					},
					{
						"astId": 187,
						"contract": "staticoin.sol:Staticoin",
						"label": "balances",
						"offset": 0,
						"slot": "5",
						"type": "t_mapping(t_address,t_uint256)"
					},
					{
						"astId": 193,
						"contract": "staticoin.sol:Staticoin",
						"label": "allowed",
						"offset": 0,
						"slot": "6",
						"type": "t_mapping(t_address,t_mapping(t_address,t_uint256))"
					}
				],
				"types": {
					"t_address": {
						"encoding": "inplace",
						"label": "address",
						"numberOfBytes": "20"
					},
					"t_mapping(t_address,t_mapping(t_address,t_uint256))": {
						"encoding": "mapping",
						"key": "t_address",
						"label": "mapping(address => mapping(address => uint256))",
						"numberOfBytes": "32",
						"value": "t_mapping(t_address,t_uint256)"
					},
					"t_mapping(t_address,t_uint256)": {
						"encoding": "mapping",
						"key": "t_address",
						"label": "mapping(address => uint256)",
						"numberOfBytes": "32",
						"value": "t_uint256"
					},
					"t_string_storage": {
						"encoding": "bytes",
						"label": "string",
						"numberOfBytes": "32"
					},
					"t_uint256": {
						"encoding": "inplace",
						"label": "uint256",
						"numberOfBytes": "32"
					},
					"t_uint8": {
						"encoding": "inplace",
						"label": "uint8",
						"numberOfBytes": "1"
					}
				}
			},
			"userdoc": {
				"kind": "user",
				"methods": {},
				"version": 1
			}
		}
	}
}